:08000000803102288731FD2F39
:100F840021009901980108001630210097000800FB
:100F94008731CE278731CD2F8731D72787318731C6
:100FA400C22787318731C62708000230220090000B
:100FB4008F018C018D0108308E000D3021009000CE
:100FC400FF308C00FF308D00F7308E00FF308F0033
:100FD4003F3023008D00FF308F00053090003F30FC
:100FE4008C00083024009000FF308D002100951300
:0C0FF40022009D01080020008731CA2F58
:020000040001F9
:04000E00E4FFFFFE0E
:00000001FF
