:020000040000FA
:08000000803102288731E82F4E
:10000A0049346E346934743461346C3469347A3402
:10001A006534563461346C34753465340034F60012
:10002A007603031D19281A28372873087F3EF4001F
:10003A007408F9007908F4000430F436890B222890
:10004A007408F5007508F70079080F39F400740888
:10005A00F80077088E31A526803178088E31A526DA
:10006A0080315B2802307606031D3C283D285B2838
:10007A007308BF3EF4007408F9007908F4000430EC
:10008A00F436890B45287408F5007508F7007908D5
:10009A000F39F4007408F80077088E31A5268031EC
:1000AA0078088E31A52680315B285B280800F60186
:1000BA00F31F602861286928F209F309F20A031973
:1000CA00F30AF601F60A6928F11F6C286D287328CD
:1000DA00F009F109F00A0319F10A7328700871048A
:1000EA00031978287928A828F501F50A8628013005
:1000FA00F035F10D890B7D280130F4007408F507FD
:10010A008628F11F89288A287C288C288C2871083F
:10011A007302031D922870087202031C9528962800
:10012A009B287008F2027108F33B9B280130F136D4
:10013A00F00C890B9C280130F502031DA528A6287E
:10014A008C28A828A82876080319AC28AD28B32833
:10015A00F209F309F20A0319F30AB3287308F10042
:10016A007208F000B8280800F601F11FBD28BE2861
:10017A00C628F009F109F00A0319F10AF601F60A8C
:10018A00C628F31FC928CA28D428F209F309F20A93
:10019A000319F30A0130F4007408F606D428F701AB
:1001AA00F801700871040319DB28DC281129F5010C
:1001BA00F50AE9280130F035F10D890BE028013004
:1001CA00F4007408F507E928F11FEC28ED28DF2868
:1001DA00EF28EF280130F735F80D890BF028710860
:1001EA007302031DFA2870087202031CFD28FE28F8
:1001FA0004297008F2027108F33B771404290130CC
:10020A00F136F00C890B05290130F502031D0E2980
:10021A000F29EF28112911297608031915291629FA
:10022A001C29F709F809F70A0319F80A1C2978089A
:10023A00F1007708F000212908002000A4006008D6
:10024A00A1006108A2006208A300A50103302502EB
:10025A00031C3029312933296F296F290A30F0000C
:10026A000030F1002408F900FA017908F2007A084E
:10027A00F30080315C2081317008FB007B0820008C
:10028A00A0000A30F0000030F1002408F900FA0159
:10029A007908F2007A08F3008031B92081317008B8
:1002AA00FB007B082000A4002008303EF90025034B
:1002BA00FF3A023E213E860087017908810001301B
:1002CA00F9007908A50703302502031C6D296E2958
:1002DA0033296F2930302106031D742975297A299B
:1002EA002030F9007908A1007A2930302206031D4E
:1002FA007F29802985292030F9007908A2008529DB
:10030A00A60103302602031C8B298C298E29A229D7
:10031A00A2292608213E8600870101088E315E2621
:10032A0081310130F90079082000A607033026023E
:10033A00031CA029A1298E29A229080020005408FB
:10034A00D8005508D9005608DA005708DB00031010
:10035A005A0D5B0DDC005C08DE005E08031DB62941
:10036A00B729C1290030D7000030D6000030D500A7
:10037A000030D400372A372A5408D8005508D90043
:10038A005608DA005708DB001F30DB36DA0CD90CC6
:10039A00D80C890BCA295808DC005C08DD00D6177E
:1003AA00FF30D405FF30D505FF30D6050030D7051C
:1003BA009630DE02DE1FE229E329062A5E08803A29
:1003CA00973E0318E929EA29F5290030D7000030B9
:1003DA00D6000030D5000030D400372A372AF52954
:1003EA000130D736D60CD50CD40C890BF62901303E
:1003FA00D8005808DE07031D032A042AF529272AEC
:10040A00272A20305E02031C0B2A0C2A202A0030DD
:10041A00D7000030D6000030D5000030D400372A8B
:10042A00372A202A0130D435D50DD60DD70D890BA0
:10043A00182A0130DE025E08031D242A252A172AFB
:10044A00272A272A5D0803192B2A2C2A372AD40996
:10045A00D509D609D709D40A0319D50A0319D60A20
:10046A000319D70A08008E31782682313C2A2200E5
:10047A000E14402A402A8E108F31BD2782318E31C8
:10048A004A268231F301F30A013080311420823185
:10049A001330F5009030F6008E31F5268231F301E3
:1004AA00F30A02308031142082310D30F500903089
:1004BA00F6008E31F52682312630F1009030F200B6
:1004CA008E31BE2682310030F1009030F2008E313A
:1004DA00BE268231702A05308E31D72682317108C4
:1004EA002000E7007008E6006608F0006708F100DF
:1004FA00F201F30100308231EA22823173082000CE
:10050A00A7007208A6007108A5007008A40044306C
:10051A00A3007F30A200C030A1000030A0008331C8
:10052A009E23823120002308C1002208C00021082E
:10053A00BF002008BE004230BD00C830BC000030F9
:10054A00BB000030BA0085317D25823120003D088C
:10055A00D7003C08D6003B08D5003A08D4008131C0
:10056A00A321823120005408DF005F08E80006302A
:10057A00DF005F08F30002308031142082311F301F
:10058A00F1009030F2008E31BE2682312D30F1001A
:10059A009030F2008E31BE26823120006808813107
:1005AA00222182313130F1009030F2008E31BE26A4
:1005BA00823120006708F1006608F0008E318E262D
:1005CA008231702A702A80310228F80078080319CB
:1005DA00EF2AF02A042BF31FF32AF42A042B7009BA
:1005EA00FA007109FB007209FC007309FD00FA0A9E
:1005FA000319FB0A0319FC0A0319FD0A0C2B7308D9
:10060A00FD007208FC007108FB007008FA0073080C
:10061A00720471047004031D132B142B1E2B00305B
:10062A00F3000030F2000030F1000030F0009D2BA2
:10063A009D2B9630F4007408F9002F2B0130F4003A
:10064A007408F9070130FD36FC0CFB0CFA0C890B17
:10065A00282B2F2BFE307D05031D342B352B232B06
:10066A004A2B4A2B0130F4007408F9070130FA07C3
:10067A000030FB3D0030FC3D0030FD3D0130FD36D1
:10068A00FC0CFB0CFA0C890B442BFF307D05031D77
:10069A004F2B502B372B5C2B5C2B0130F90201308E
:1006AA00FA35FB0DFC0DFD0D890B552B5C2BFC1B44
:1006BA005F2B602B672B023079020318652B662BA0
:1006CA00522B672B79186A2B6B2B732BFF30FA0589
:1006DA00FF30FB057F30FC05FF30FD050310F90CE8
:1006EA007908F400F501F601F7011830F435F50D33
:1006FA00F60DF70D890B7B2B7408FA047508FB04B9
:10070A007608FC047708FD04780803198D2B8E2BD4
:10071A00942BF31F912B922B942BFD17942B7D086E
:10072A00F3007C08F2007B08F1007A08F0009D2BA8
:10073A000800200027088039A8002808B1002735BA
:10074A00A8002808B800A61FAB2BAC2BAE2B381478
:10075A00AE2B38080319B22BB32BC42B380A031D4E
:10076A00B72BB82BC12B0030A7000030A6000030F1
:10077A00A5000030A400C12BA617A701CD2B00307D
:10078A00A7000030A6000030A5000030A400CD2B41
:10079A0023088039A8002808B1062335A8002808AC
:1007AA00B900A21FD92BDA2BDC2B3914DC2B390820
:1007BA000319E02BE12BF22B390A031DE52BE62B5B
:1007CA00EF2B0030A3000030A2000030A10000305F
:1007DA00A000EF2BA217A301FA2B0030A3000030D0
:1007EA00A2000030A1000030A00023082204210446
:1007FA002004031D012C022C1C2C0030A700003001
:10080A00A6000030A5000030A4008030A6047F3086
:10081A00A7043108A8002808A7042708A300260867
:10082A00A2002508A1002408A0007C2D7C2D3808F0
:10083A00031D202C212C332C0030A7000030A600E9
:10084A000030A5000030A4002708A3002608A20053
:10085A002508A1002408A0007C2D7C2D3908A800B9
:10086A00A901A809A909A80A0319A90A3808280781
:10087A00AA0029080318290AAB002A087F3EB200F9
:10088A0000302B3DB3002708B0002608AF0025082A
:10089A00AE002408AD000030A7000030A6000030EA
:1008AA00A5000030A4000030B7000030B6000030C8
:1008BA00B5000030B400B901A42C39080319662C1C
:1008CA00672C832C0130AD35AE0DAF0DB00D890B01
:1008DA00682C0130A435A50DA60DA70D890B6F2C28
:1008EA00B71F782C792C7B2C24147B2C0130B4353F
:1008FA00B50DB60DB70D890B7C2C832C230830025D
:10090A00031D912C22082F02031D912C21082E026F
:10091A00031D912C20082D02031C942C952C9F2C2E
:10092A0037172008AD022108AE3B2208AF3B230847
:10093A00B03B9F2C0130A8002808B907A42C1A3014
:10094A003902031CA92CAA2C622CAB2C30082F04C8
:10095A002E042D040319B22CB32CCF2C3414CF2C13
:10096A00CF2C0130A435A50DA60DA70D890BB72CE8
:10097A00B71FC02CC12CC32C2414C32C0130B4358E
:10098A00B50DB60DB70D890BC42CFF30B207FF3079
:10099A00B33DCF2CA61FD22CD32CB62CD42CB90104
:1009AA00B71FD82CD92CF92CFF303405A800FF30FA
:1009BA003505A900FF303605AA007F303705AB00A0
:1009CA002B082A04290428040319EC2CED2CF02CFA
:1009DA00B901B90AF92C241CF32CF42CF92CB9010D
:1009EA00B90AF92CF92CF92C39080319FD2CFE2C1B
:1009FA00282D0130A4070030A53D0030A63D003067
:100A0A00A73D271C092D0A2D282D2408A8002508F2
:100A1A00A9002608AA002708AB000130AC00AB37B2
:100A2A00AA0CA90CA80CAC0B142D2B08A7002A0899
:100A3A00A6002908A5002808A4000130B207003042
:100A4A00B33D282D282D3308803AA800803028028B
:100A5A00031D312DFF303202031C342D352D422D5A
:100A6A00FF302000B2000030B3000030A700003091
:100A7A00A6000030A5000030A40020003308803A08
:100A8A00A80080302802031D4C2D013032020318C1
:100A9A004F2D502D5C2D2000B201B3010030A7006C
:100AAA000030A6000030A5000030A400B1012000EB
:100ABA003208A8002808B800381C642D652D672D57
:100ACA00A6176B2D7F30A8002808A6053836A8007F
:100ADA002808A7003108A8002808A7042708A300A7
:100AEA002608A2002508A1002408A0007C2D0800E1
:100AFA0020003D088039C2004208C7003D35C200C7
:100B0A004208CD00BC1F8A2D8B2D8D2D4D148D2DA5
:100B1A004D080319912D922DA22D4D0A031D962DD4
:100B2A00972DA02D0030BD000030BC000030BB0066
:100B3A000030BA00A02DBC17AB2D0030BD0000302C
:100B4A00BC000030BB000030BA00AB2D4108803930
:100B5A00C2004208C7064135C2004208CC00C01F85
:100B6A00B72DB82DBA2D4C14BA2D4C080319BE2D29
:100B7A00BF2DCF2D4C0A031DC32DC42DCD2D003002
:100B8A00C1000030C0000030BF000030BE00CD2DD3
:100B9A00C017D82D0030C1000030C0000030BF009F
:100BAA000030BE00D82D4C080319DC2DDD2DE32DB5
:100BBA004D08031DE12DE22DED2DE32D0030BD0082
:100BCA000030BC000030BB000030BA00E72FE72F2E
:100BDA003A08C2004208F00040088F3135278531B3
:100BEA0071082000D3007008D2005208C200C30165
:100BFA00C401C5014508CB004408CA004308C9001E
:100C0A004208C8005308C200C301C401C50145080F
:100C1A00D1004408D0004308CF004208CE003B0868
:100C2A00C2004208F0003F088F313527853171082C
:100C3A002000D3007008D2005208C200C301C401C8
:100C4A00C5014208C8074308C93D4408CA3D4508CA
:100C5A00CB3D5308C200C301C401C5014208CE07F7
:100C6A004308CF3D4408D03D4508D13D3C08C20069
:100C7A004208F0003E088F3135278531710820007F
:100C8A00D3007008D2005208C200C301C401C501D2
:100C9A004208C8074308C93D4408CA3D4508CB3D38
:100CAA005308C200C301C401C5014208CE07430864
:100CBA00CF3D4408D03D4508D13D0830C835C90D5F
:100CCA00CA0DCB0D890B632E3B08C2004208F00007
:100CDA003E088F313527853171082000D30070080E
:100CEA00D2005208C8075308C93D0030CA3DCB3D5F
:100CFA003A08C2004208F0003F088F313527853193
:100D0A0071082000D3007008D2005208C80753089F
:100D1A00C93D0030CA3DCB3D0830C835C90DCA0DA2
:100D2A00CB0D890B922E3A08C2004208F0003E0809
:100D3A008F313527853171082000D3007008D20021
:100D4A005208C8075308C93D0030CA3DCB3D3B088D
:100D5A00C2004208F00040088F31352785317108FA
:100D6A002000D3007008D2005208CE075308CF3DA6
:100D7A000030D03DD13D3C08C2004208F0003F0897
:100D8A008F313527853171082000D3007008D200D1
:100D9A005208CE075308CF3D0030D03DD13D3C0824
:100DAA00C2004208F00040088F31352785317108AA
:100DBA002000D3007008D2005208C2005308C300B2
:100DCA00C401C5010830C235C30DC40DC50D890B58
:100DDA00E82E4208CE074308CF3D4408D03D4508D7
:100DEA00D13D4808C2004908C3004A08C4004B085C
:100DFA00C5001830C536C40CC30CC20C890BFF2EB3
:100E0A004208CE074308CF3D4408D03D4508D13DAE
:100E1A000830C835C90DCA0DCB0D890B0E2F4D08E8
:100E2A004C07C200C301C30D4208823ED200FF3004
:100E3A00433DD300392F0130CE35CF0DD00DD10D22
:100E4A00890B212FCB1F2A2F2B2F2D2F4E142D2FFD
:100E5A000130C835C90DCA0DCB0D890B2E2FFF30B5
:100E6A00D207FF30D33D392FD01F3C2F3D2F202FE3
:100E7A003E2FCC01CB1F422F432F632FFF30480553
:100E8A00C200FF304905C300FF304A05C4007F3065
:100E9A004B05C50045084404430442040319562F70
:100EAA00572F5A2FCC01CC0A632F4E1C5D2F5E2F71
:100EBA00632FCC01CC0A632F632F632F4C080319CD
:100ECA00672F682F922F0130CE070030CF3D0030B8
:100EDA00D03D0030D13D511C732F742F922F4E08F4
:100EEA00C2004F08C3005008C4005108C5000130B1
:100EFA00C600C537C40CC30CC20CC60B7E2F4508EE
:100F0A00D1004408D0004308CF004208CE00013087
:100F1A00D2070030D33D922F922F5308803AC20055
:100F2A0080304202031D9B2FFF305202031C9E2F6A
:100F3A009F2FA92F7F302000D1008030D0000030B1
:100F4A00CF000030CE00DA2F20005308803AC200CA
:100F5A0080304202031DB32F013052020318B62F0C
:100F6A00B72FC22F00302000D1000030D00000304F
:100F7A00CF000030CE00C701DA2F20005208C2008D
:100F8A004208CD00FF30CE05FF30CF057F30D005B7
:100F9A000030D1054D1CD22FD32FD52FD017D52FE6
:100FAA004D36C2004208D100DA2F4708C200420873
:100FBA00D1045108BD005008BC004F08BB004E08C0
:100FCA00BA00E72F08000530840080308500A03081
:100FDA008600003087000F308E312D268731E001E0
:100FEA00E101E201E301E401E501E601E701E801CB
:060FFA0020008231382ABC
:101C52001630210097000800FE0012001E00FE0B45
:101C62002E2E003470302100990098012200960136
:101C72000800013021009D0090309E009B019C01D4
:101C82000800FF3020009B009A01911001309C0057
:101C9200080000308E31A5268E3101308E31A52606
:101CA2008E310800083023009F0090309D002430C0
:101CB2009E0067309B009C010800F000602E20000F
:101CC200111E642E652E602E662E700823009A0067
:101CD2000800BC3025009300950180309400033049
:101CE200960092017F309100FC309E0508008F31F2
:101CF20014278E318E3133268E318E3129268E3144
:101D02008E313A268E318E316A268E318E314226BE
:101D12008E318E3153268E3108007108F30070081F
:101D2200F200F336F20CF336F20C72082500910041
:101D320070080339F2000430F235890B9D2E130826
:101D4200CF39720493000800F20022000C10A92E71
:101D520072088F315B278E31AE2E22008C17B12E86
:101D62000B30F1006230890BB42EF10BB42E00322D
:101D7200BA2E22008C13BD2E0800CC2E71088400CE
:101D82007208850000088E315E268E310130F1071F
:101D92000030F23DCC2E71088400720885001200DA
:101DA200031DD42ED52EBF2ED62E0800F3007308A5
:101DB200F200F20DF20D21001D087206833972063F
:101DC2009D001D140330890BE42E000021009D1498
:101DD200EA2E9D18ED2EEE2EEA2EEF2E1C08F100B3
:101DE2001B08F000F42E0800F801F901072F75080E
:101DF200780784007608793D850000088F318727AF
:101E02008E310130F8070030F93D072F7508780749
:101E120084007608793D85001200031D112F122FD0
:101E2200F82E132F0800220090018F018C018D01E2
:101E32008E010F30210090008C01FF308D00B830F0
:101E42008E00DF308F00FF3023008F003F308D0087
:101E5200073090003F308C00240090018D0121005A
:101E6200951722009D010800F800F401F5017008A1
:101E7200F200F3017208F6007308F700402F781C95
:101E8200432F442F482F7608F4077708F53D013099
:101E9200F635F70D890B492F0310F80C7808031D4E
:101EA200532F542F402F552F7508F1007408F0005E
:101EB2005A2F0800F000701C5F2F602F642F220041
:101EC2000C15682F682F22000C11682F682FF01C48
:101ED2006B2F6C2F6F2F8C15722F722F8C11722F0C
:101EE200722F701D752F762F792F0C167C2F7C2F59
:101EF2000C127C2F7C2FF01D7F2F802F832F8C16AE
:101F0200862F862F8C12862F862F0800F4007408E5
:101F12000F39F1007108F2007408F039F10071080C
:101F2200F300932F22000C14962F7308F100043053
:101F3200F136890B992F71088F315B278F31A12FD1
:101F420022008C17A42F1A30890BA52F0032A92F3B
:101F520022008C13AC2F72088F315B278F31B12F87
:101F620022008C17B42F1A30890BB52F0032B92FEB
:101F720022008C13BC2F080000308F315B278F3179
:101F82003430F300F230890BC42FF30BC42F03302B
:101F92008E31A5268F310D30F300FC30890BCF2F07
:101FA200F30BCF2F03308E31A5268F311D30F30076
:101FB2009130890BDA2FF30BDA2F000003308E31C8
:101FC200A5268F3102308E31A5268F3102308E3117
:101FD200A5268F3108308E31A5268F3100308E3103
:101FE200A5268F310C308E31A5268F3100308E31EF
:101FF200A5268F3106308E31A5268F310800573441
:1020020065346C34743466347234693465346434DF
:1020120065346E340D340A3444346F346E346534AE
:102022003A340034573465346C346634723469346B
:102032006534643465346E343A3400341B345B34B2
:1020420032343B343634483400341B345B34483445
:102052001B345B344A3400342E342E342E34003494
:0420620025340034ED
:020000040001F9
:04000E00E4F9FFDE34
:00000001FF
