:020000040000FA
:10000000803102288731E12F080016302100970047
:100010000800F6007603031D0E280F282C2873080D
:100020007F3EF4007408F9007908F4000430F436D7
:10003000890B17287408F5007508F70079080F393F
:10004000F4007408F80077089B3198238031780811
:100050009B3198238031502802307606031D3128C9
:10006000322850287308BF3EF4007408F90079085C
:10007000F4000430F436890B3A287408F50075084A
:10008000F70079080F39F4007408F80077089B31FD
:100090009823803178089B3198238031502850284C
:1000A00008002100BC00BA01BB0120006708210044
:1000B000D000200066082100CF0020006508210044
:1000C000CE00200064082100CD0050082000D70099
:1000D00021004F082000D60021004E082000D50046
:1000E00021004D082000D4000030DB000030DA0091
:1000F0000030D9000030D80091319E2180310318A2
:10010000822883289D2801302100BA000030BB00DE
:100110005008F3004F08F2004E08F1004D08F000BF
:100120009B314423803173082100D0007208CF0036
:100130007108CE007008CD009D282100D301D401A4
:10014000220056082100C100220055082100C000ED
:100150003A083B04031DAD28AE28B4282200591DDF
:10016000B228B328DB28B42821003A083B04031D39
:10017000BA28BB28C0282B30A4000030A500C52811
:100180002D30A4000030A500C52824082000E90077
:1001900021005308A03E8600013087002000690836
:1001A000810001302100D3070030D43DFF30C0076B
:1001B000FF30C13DDB2821005008F3004F08F2005A
:1001C0004E08F1004D08F000903187208031700317
:1001D0007104031DEC28ED28542920006808BF3E57
:1001E000E900FF3003180030EA0000306A021A30DC
:1001F00003196902031CFD28FF2801300029003083
:10020000EB00EC016B082100A60020006C08210027
:10021000A7001B2920006808E900EA016908F0002E
:100220006A08F1009B31CA23803171082100A700C0
:100230007008A6001B292608270403192029212954
:100240002B291E30F0009830F1005308A03E9C315D
:100250008924803136292630F0009830F1002100C1
:100260005308A03E9C31892480313629FD3021007D
:10027000C007FF30C13DA0302000E9006908A4009C
:10028000210041082000A600210040082000A50010
:1002900021003C089F313C27803120002508E500E3
:1002A0002408E400E02FE02F21005008F3004F085D
:1002B000F2004E08F1004D08F000903187208031A7
:1002C00070087104031D65296629CD29200068087E
:1002D000BF3EE900FF3003180030EA0000306A0238
:1002E0001A3003196902031C76297829013079290B
:1002F0000030EB00EC016B082100A80020006C0826
:100300002100A900942920006808E900EA01690891
:10031000F0006A08F1009B31CA2380317108210086
:10032000A9007008A800942928082904031999290C
:100330009A29A4292230F0009830F1005308A03EF9
:100340009C3189248031AF292A30F0009830F100A7
:1003500021005308A03E9C3189248031AF29FD3013
:100360002100C007FF30C13DA0302000E90069082E
:10037000A400210041082000A60021004008200020
:10038000A50021003C089F313C2780312000250832
:10039000E5002408E400E02FE02F3F302100D800E2
:1003A0008030D7000030D6000030D500D101D20116
:1003B0005008F3004F08F2004E08F1004D08F0001D
:1003C0000030F7000030F6000030F5000030F40097
:1003D0009E31342680310318EE29EF29B92A222ACA
:1003E000222A41302000BD002030BC000030BB007C
:1003F0000030BA00210058082000C1002100570831
:100400002000C000210056082000BF002100550830
:100410002000BE0095319525803120003D08210047
:10042000D80020003C082100D70020003B08210014
:10043000D60020003A082100D5000130D107003055
:10044000D23D222A210050082000D70021004F0869
:100450002000D60021004E082000D50021004D08C4
:100460002000D4004130BD002030BC000030BB0073
:100470000030BA00210058082000C10021005708B0
:100480002000C000210056082000BF0021005508B0
:100490002000BE0095319525803120003D08DB000D
:1004A0003C08DA003B08D9003A08D80091319E2177
:1004B000803103185C2A5D2AF129902A902A413064
:1004C0002000A3002030A2000030A1000030A000D6
:1004D000210058082000A700210057082000A6008E
:1004E000210056082000A500210055082000A40086
:1004F000883131208031200023082100D8002000DD
:1005000022082100D700200021082100D600200069
:1005100020082100D500FF30D107FF30D23D902ABE
:10052000210050082000D70021004F082000D600ED
:1005300021004E082000D50021004D082000D400E5
:10054000210058082000DB00210057082000DA00B5
:10055000210056082000D900210055082000D800AD
:1005600091319E218031031CB62AB72A5F2AB92A0D
:10057000B92A20006808E900EA016908F6006A085B
:10058000F7009D315425803176082000EB006B0880
:100590002100C20042082000E90069082100BF00D4
:1005A00067304206031DD52AD62A002B22005708A1
:1005B0005804031DDC2ADD2AE12A0130D70000306F
:1005C000D8005808803A2000E90080306902031DF5
:1005D000EC2A0130220057020318EF2AF02AF62AEB
:1005E00006302100BD000030BE00142B2200580848
:1005F0002100BE00220057082100BD00142B142B3F
:100600002200D81B042B052B0D2B58082100BE00FF
:10061000220057082100BD00142B06302100BD0028
:100620000030BE00142B142B67304206031D192B1B
:100630001A2B532B5208803A2000E9007F306902C0
:10064000031D252BFC3021005102031C282B292BD4
:100650004C2B21003D08FF3E2000E900FF30210027
:100660003E3D2000EA006A08803AEB002100520873
:10067000803A20006B02031D412B2100510820000D
:100680006902031C442B452B4C2B66302000E900EB
:1006900069082100BF00532B65302000E90069087C
:1006A0002100BF00532B3E08B5003D08B400673061
:1006B0004206031D5C2B5D2B682B66303F06031D35
:1006C000622B632B6D2BD21F662B672B6D2B682B38
:1006D0000130B4070030B53D6D2B66303F06031D79
:1006E000722B732B8E2BD21F762B772B822B3F30C6
:1006F000D8008030D7000030D6000030D500D101BE
:10070000D201822B673042060319872B882B8E2B50
:100710005108B4075208B53D8E2B8E2BCB01CC016E
:100720005008C6004F08C5004E08C4004D08C3005D
:100730005808A3005708A2005608A1005508A000B9
:100740006F2C210058082000A3002100570820002A
:10075000A200210056082000A10021005508200019
:10076000A000210046082000A70021004508200025
:10077000A600210044082000A50021004308200015
:10078000A40088313120803120002308BD002208D8
:10079000BC002108BB002008BA009431A624803197
:1007A00020003D082100CA0020003C082100C900AB
:1007B00020003B082100C80020003A082100C700A3
:1007C0004A08F3004908F2004808F1004708F00021
:1007D00091310A21803171082100B9007008B800F8
:1007E0004A082000C100210049082000C000210063
:1007F00048082000BF00210047082000BE0021005B
:1008000058082000BD00210057082000BC0021002E
:1008100056082000BB00210055082000BA00953181
:100820009525803120003D08D7003C08D6003B08C4
:10083000D5003A08D400210046082000DB00210042
:1008400045082000DA00210044082000D9002100DA
:1008500043082000D8009C31232480312000570811
:100860002100C600200056082100C50020005508C0
:100870002100C400200054082100C30041302000A2
:10088000A3002030A2000030A1000030A000210011
:1008900058082000A700210057082000A6002100CA
:1008A00056082000A500210055082000A40088312A
:1008B00031208031200023082100D80020002208A8
:1008C0002100D700200021082100D60020002008A8
:1008D0002100D5000130CB070030CC3D6F2C4C08F7
:1008E000803A2000E90021003508803A20006902A2
:1008F000031D7D2C210034084B02031C802C812C0D
:10090000A12B822C40302000BD00A030BC00003064
:10091000BB000030BA00210058082000C1002100AF
:1009200057082000C000210056082000BF00210009
:1009300055082000BE0095319525803120003D08E6
:100940002100CA0020003C082100C90020003B080B
:100950002100C80020003A082100C70046082000F6
:10096000D700210045082000D600210044082000BF
:10097000D500210043082000D40021004A082000AF
:10098000DB00210049082000DA002100480820008F
:10099000D900210047082000D80091319E218031E4
:1009A0000318D32CD42CDE2C00302100CA000030D8
:1009B000C9000030C8000030C700052D21004608DE
:1009C000F3004508F2004408F1004308F0004A082B
:1009D000F7004908F6004808F5004708F4009E3182
:1009E00034268031031CF52CF62C052D21003818F7
:1009F000FA2CFB2C052D0030CA000030C900003055
:100A0000C8000030C700052D052D21004A08F3005D
:100A10004908F2004808F1004708F0005008F700C4
:100A20004F08F6004E08F5004D08F4008A311022F8
:100A3000803173082100C6007208C5007108C40027
:100A40007008C3002308D8002208D7002108D60068
:100A50002008D50065303F0603192F2D302D352D88
:100A60005208B7005108B600372DB601B701B201E0
:100A7000B301B001B101CB01CC01892E210058088E
:100A80002000A300210057082000A20021005608E2
:100A90002000A100210055082000A00021004608E8
:100AA0002000A700210045082000A60021004408DE
:100AB0002000A500210043082000A4008831312037
:100AC000803120002308BD002208BC002108BB00A3
:100AD0002008BA009431A624803120003D0821006E
:100AE000CA0020003C082100C90020003B0821006A
:100AF000C80020003A082100C7004A08F30049084E
:100B0000F2004808F1004708F00091310A218031D5
:100B100071082100B9007008B8002200591A912DFF
:100B2000922DA82D210038083904031D982D992DE8
:100B3000A82D67304206031D9E2D9F2DA82DB71F9F
:100B4000A22DA32DA82D0130B0070030B13D062EF7
:100B5000210032083304031DAE2DAF2DE82DB71F41
:100B6000B22DB32DE82D2E302000E90021005308CE
:100B7000A03E860001308700200069088100013016
:100B80002100D3070030D43DFF30C007FF30C13D06
:100B90000130B2000030B300E82DE82D30302000E5
:100BA000E90021005308A03E8600013087002000A4
:100BB0006908810001302100D3070030D43DFF30A7
:100BC000C007FF30C13DFF30B007FF30B13DE82D19
:100BD00030083104031DED2DEE2DCE2DEF2D3808FC
:100BE000303E2000E90021005308A03E860001307D
:100BF000870020006908810001302100D307003000
:100C0000D43DFF30C007FF30C13D062E4A0820000A
:100C1000C100210049082000C00021004808200030
:100C2000BF00210047082000BE0021005808200016
:100C3000BD00210057082000BC00210056082000FC
:100C4000BB00210055082000BA0095319525803160
:100C500020003D08D7003C08D6003B08D5003A08E4
:100C6000D400210046082000DB00210045082000B8
:100C7000DA00210044082000D900210043082000A8
:100C8000D8009C3123248031200057082100C60061
:100C9000200056082100C500200055082100C4008E
:100CA000200054082100C30041302000A300203060
:100CB000A2000030A1000030A00021005808200050
:100CC000A700210057082000A60021005608200098
:100CD000A500210055082000A40088313120803172
:100CE000200023082100D800200022082100D7007E
:100CF000200021082100D600200020082100D50076
:100D0000FF30B607FF30B73D0130CB070030CC3D98
:100D1000892E4C08803A2000E90021003508803AED
:100D200020006902031D972E210034084B0203188E
:100D30009A2E9B2EAD2E21005408803A2000E90007
:100D400080306902031DA72E4B3021005302031C83
:100D5000AA2EAB2E3E2DAD2EAD2E2100320833042F
:100D6000031DB32EB42ECB2E2200591EB82EB92E41
:100D7000CB2E2E302000E90021005308A03E860033
:100D80000130870020006908810001302100D3076D
:100D90000030D43DCB2E21005308A03E8600013008
:100DA0008700810165303F06031DD72ED82EC82F3E
:100DB0004F30CB000030CC004B08A03E8600013005
:100DC00087008101BA01BB01D21FE72EE82EF22E67
:100DD0000130BA000030BB00D109D209D10A031991
:100DE000D20AF22E0230BD000030BE002E2FFF309E
:100DF0002100CB07FF30CC3D0A30F0000030F1007D
:100E00005208F3005108F2009E31DF26803170084D
:100E1000303E2000E90021004B08A03E8600013052
:100E200087002000690881000A30F0000030F100DE
:100E300021005208F3005108F20090311E20803149
:100E400071082100D2007008D100FF30BD07FF30CB
:100E5000BE3DFF30C007FF30C13D2E2F5108520468
:100E6000031D332F342FF72E3E08803A2000E9006F
:100E700080306902031D3F2F013021003D0203181D
:100E8000422F432FF72E442FFF302100CB07FF3096
:100E9000CC3D3A083B04031D4E2F4F2F542F2B30CF
:100EA000AA000030AB00592F2D30AA000030AB0053
:100EB000592F2A082000E90021004B08A03E860097
:100EC00001308700200069088100FF302100C00741
:100ED000FF30C13DFF30CB07FF30CC3D200068081C
:100EE000BF3EE900FF3003180030EA0000306A021C
:100EF0001A3003196902031C7E2F802F0130812FC5
:100F00000030EB00EC016B082100AE0020006C0803
:100F10002100AF009C2F20006808E900EA01690861
:100F2000F0006A08F1009B31CA238031710821006A
:100F3000AF007008AE009C2F2E082F04031DA12FB8
:100F4000A22FA72F6530AC000030AD00AC2F45308C
:100F5000AC000030AD00AC2F2C082000E9002100CF
:100F60004B08A03E86000130870020006908810000
:100F7000FF302100C007FF30C13D4B08A03EF0000C
:100F80000130F1005308A03E9C3189248031C82FE4
:100F9000A0302000E9006908A400210041082000D9
:100FA000A600210040082000A50021003C089F3138
:100FB0003C27803120002508E5002408E400E02FCC
:100FC00008005F3084009B3085005D308600013072
:100FD00087000F309B311E2387314B308400013056
:100FE000850012309B3118238731A03084000130F6
:100FF000850050309B311823873120009331002B1E
:101002002200AE0028302000EF006F082200AF005F
:101012002E082000EF006F082200B000B101B201DB
:10102200B301B4012708A1002608A0002F30200038
:10103200EF006F082200A20030309D3187258831F1
:1010420022002108AD002008AC0031082E07200044
:10105200EF006F0886000130870081013028080008
:10106200200027088039A8002808B1002735A800E9
:101072002808B800A61F3E283F28412838144128D6
:1010820038080319452846285728380A031D4A28D4
:101092004B2854280030A7000030A6000030A500DD
:1010A2000030A4005428A617A70160280030A7002A
:1010B2000030A6000030A5000030A40060282308FC
:1010C2008039A8002808B1062335A8002808B900ED
:1010D200A21F6C286D286F2839146F28390803194C
:1010E200732874288528390A031D782879288228CC
:1010F2000030A3000030A2000030A1000030A000A8
:101102008228A217A3018D280030A3000030A2007C
:101112000030A1000030A000230822042104200492
:10112200031D94289528AF280030A7000030A600A0
:101132000030A5000030A4008030A6047F30A70450
:101142003108A8002808A7042708A3002608A2003F
:101152002508A1002408A0000F2A0F2A3808031D21
:10116200B328B428C6280030A7000030A6000030FB
:10117200A5000030A4002708A3002608A200250825
:10118200A1002408A0000F2A0F2A3908A800A901EB
:10119200A809A909A80A0319A90A38082807AA0050
:1011A20029080318290AAB002A087F3EB200003042
:1011B2002B3DB3002708B0002608AF002508AE007B
:1011C2002408AD000030A7000030A6000030A500C2
:1011D2000030A4000030B7000030B6000030B50087
:1011E2000030B400B901372939080319F928FA285F
:1011F20016290130AD35AE0DAF0DB00D890BFB28B0
:101202000130A435A50DA60DA70D890B0229B71F24
:101212000B290C290E2924140E290130B435B50DE1
:10122200B60DB70D890B0F29162923083002031DAD
:10123200242922082F02031D242921082E02031D1E
:10124200242920082D02031C27292829322937178F
:101252002008AD022108AE3B2208AF3B2308B03B79
:1012620032290130A8002808B90737291A30390273
:10127200031C3C293D29F5283E2930082F042E0461
:101282002D04031945294629622934146229622949
:101292000130A435A50DA60DA70D890B4A29B71F4C
:1012A200532954295629241456290130B435B50D31
:1012B200B60DB70D890B5729FF30B207FF30B33D8A
:1012C2006229A61F6529662949296729B901B71F1D
:1012D2006B296C298C29FF303405A800FF303505B5
:1012E200A900FF303605AA007F303705AB002B0876
:1012F2002A042904280403197F2980298329B90192
:10130200B90A8C29241C862987298C29B901B90A92
:101312008C298C298C293908031990299129BB29F8
:101322000130A4070030A53D0030A63D0030A73DA6
:10133200271C9C299D29BB292408A8002508A9004F
:101342002608AA002708AB000130AC00AB37AA0C74
:10135200A90CA80CAC0BA7292B08A7002A08A600E9
:101362002908A5002808A4000130B2070030B33DC7
:10137200BB29BB293308803AA80080302802031D0C
:10138200C429FF303202031CC729C829D529FF30DE
:101392002000B2000030B3000030A7000030A600E9
:1013A2000030A5000030A40020003308803AA800D5
:1013B20080302802031DDF29013032020318E2299E
:1013C200E329EF292000B201B3010030A700003069
:1013D200A6000030A5000030A400B10120003208B0
:1013E200A8002808B800381CF729F829FA29A617F6
:1013F200FE297F30A8002808A6053836A80028084C
:10140200A7003108A8002808A7042708A300260877
:10141200A2002508A1002408A0000F2A08007308D2
:1014220080392000A0002008F8007335A0002008B1
:10143200FA00F21F1D2A1E2A202A7A14202A7A086C
:101442000319242A252A362A7A0A031D292A2A2A36
:10145200332A0030F3000030F2000030F100003097
:10146200F000332AF217F3013F2A0030F300003074
:10147200F2000030F1000030F0003F2A7708803996
:10148200A0002008F900790878060319492A4A2A97
:101492004C2A78174C2A7735A0002008F900F61F4D
:1014A200532A542A562A7914562A790803195A2A91
:1014B2005B2A6C2A790A031D5F2A602A692A003096
:1014C200F7000030F6000030F5000030F400692A21
:1014D200F617F701742A0030F7000030F6000030EA
:1014E200F5000030F4007A0879020318792A7A2A82
:1014F200C02A781F7D2A7E2A832A8030A0002008F5
:10150200F806832A7A08A0002008FB007908A000C8
:101512002008FA007B08A0002008F9007008A0004B
:101522002008FB007408A0002008F0007B08A0003F
:101532002008F4007108A0002008FB007508A00034
:101542002008F1007B08A0002008F5007208A00026
:101552002008FB007608A0002008F2007B08A0000B
:101562002008F6007308A0002008FB007708A000FE
:101572002008F3007B08A0002008F700C02AFB0126
:101582007A08A000A101A009A109A00A0319A10AD1
:1015920079082007A20021080318210AA3002308C2
:1015A200803AA40080302402031DD92A1A30220274
:1015B200031CDC2ADD2A1B2B7308720471047004DD
:1015C200031DE42AE62A0130E72A00302000A000A9
:1015D2002008FB000030F3000030F2000030F10080
:1015E2000030F0007908A0002008FA00222B1B2B03
:1015F2007B1CFC2AFD2A042B7B3601382000A0002C
:101602002008FB00072B0310FB0C072B701C0A2B76
:101612000B2B0D2BFB170D2B01302000A000F337F5
:10162200F20CF10CF00CA00B102B0130A0002008E2
:10163200FA071B2B79087A02031C202B212BF92A8B
:10164200222B781B252B262B642B7A08031D2A2B91
:101652002B2B352B0030F3000030F2000030F1006C
:101662000030F000882C882C7408F0077508F13DD2
:101672007608F23D7708F33D731C402B412B0C2C6E
:101682007B1C442B452B4C2B7B3601382000A000C1
:101692002008FB004F2B0310FB0C4F2B701C522B0E
:1016A200532B552BFB17552B01302000A000F3378D
:1016B200F20CF10CF00CA00B582B0130A00020080A
:1016C200FA070C2C0C2C7308803A2000A000770833
:1016D200803A2002031D772B76087202031D772BB6
:1016E20075087102031D772B7408700203187A2B98
:1016F2007B2BC72BFF30A000FF30A100FF30A200E0
:10170200FF30A3007408A4007508A5007608A6009F
:101712007708A7007009A8007109A9007209AA0038
:101722007309AB00A80A0319A90A0319AA0A031923
:10173200AB0A2808A4072908A53D2A08A63D2B08BC
:10174200A73D2408A0072508A13D2608A23D270899
:10175200A33D2308F3002208F2002108F10020082B
:10176200F0008030A0002008F806FB09FB0A7B0885
:10177200031DBC2BBD2BCF2B0130F0070030F13DF8
:101782000030F23D0030F33DCF2BCF2B7408F00236
:101792007508F13B7608F23B7708F33B7308720455
:1017A20071047004031DD62BD72B062C7B08031D56
:1017B200DB2BDC2B062C0030F3000030F200003073
:1017C200F1000030F000882C882C062C0130F03516
:1017D200F10DF20DF30D890BE82BFB1FF12BF22B10
:1017E200F32B70147B1CF62BF72BFA2B0314FB0D37
:1017F200FD2B0310FB0DFD2B7A080319012C022C83
:10180200062C0130FA02062C062CF21F092C0A2C97
:10181200E72B0C2C0C2CF901FB1F102C112C232C68
:101822007B087F390319162C172C1A2CF901F90A97
:10183200232C701C1D2C1E2C232CF901F90A232C9D
:10184200232C232C79080319272C282C582C0130FF
:10185200F0070030F13D0030F23D0030F33D731CE3
:10186200332C342C582C70082000A0007108A100E1
:101872007208A2007308A3000130A400A337A20CCF
:10188200A10CA00CA40B3F2C2308F3002208F200A9
:101892002108F1002008F0007A0A0319512C522C79
:1018A200582C0130A0002008FA07582C582C7A0A2C
:1018B20003195C2C5D2C632C7A08031D612C622CAD
:1018C200732C632C0030F3000030F2000030F10082
:1018D2000030F0007A08031D6F2C702C732CF80175
:1018E200732C732C7A1C762C772C792CF2177E2C85
:1018F2007F302000A0002008F2057A362000A000E8
:101902002008F300F81F862C872C882CF317080078
:101912002100ED0020006D08860001308700403F65
:101922002100D900413FDA00590884005A08850095
:101932001200253A031D9E2C9F2CD42F20006D08E7
:101942008600013087000130810741310318810A86
:101952002200D501D601D901DA01FF30D700FF30CC
:10196200D80020006D08860001308700403F21002A
:10197200D900413FDA00590884005A088500120054
:101982002A3A031DC52CC62CEB2C20006D088600BC
:10199200013087000130810741310318810A6E0846
:1019A2008600013087000108840001308500023082
:1019B2008107003F2200D500013FD600D61FE22C4E
:1019C200E32C552D5914D509D609D50A0319D60A7F
:1019D200552D552D20006D08860001308700403FAF
:1019E200F600413FF7009331BC238C317708220087
:1019F200D6007608D500082D20006D08860001303B
:101A020087000130810741310318810A082D200027
:101A12006D08860001308700403F2100D900413F18
:101A2200DA00590884005A0885000008D03EDB001D
:101A3200FF3003180030DC0000305C020A3003196A
:101A42005B02031C252D272D0130282D0030DD00DF
:101A5200DE015D08DF005E08E0004D2D20006D080C
:101A6200860001308700403F2100D900413FDA0063
:101A7200590884005A0885000008DB00DC015B0875
:101A8200F0005C08F1009B31B1238C317108210018
:101A9200E0007008DF004D2D5F086004031D522D29
:101AA200532DFD2C552D552D20006D08860001303B
:101AB2008700403F2100D900413FDA0059088400E5
:101AC2005A08850012002E3A031D682D692D0E2E2C
:101AD2002200D701D80120006D088600013087005E
:101AE2000130810741310318810A6D0886000130F7
:101AF2008700403F2100D900413FDA0059088400A5
:101B02005A08850012002A3A031D882D892DA32D1B
:101B120020006D08860001308700013081074131C5
:101B22000318810A6E0886000130870001088400CC
:101B32000130850002308107003F2200D700013FBB
:101B4200D8000E2E20006D08860001308700403F2D
:101B5200F600413FF7009331BC238C317708220015
:101B6200D8007608D700C02D20006D08860001300D
:101B720087000130810741310318810AC02D2000FE
:101B82006D08860001308700403F2100D900413FA7
:101B9200DA00590884005A0885000008D03EDB00AC
:101BA200FF3003180030DC0000305C020A300319F9
:101BB2005B02031CDD2DDF2D0130E02D0030DD0046
:101BC200DE015D08E1005E08E200052E20006D08DE
:101BD200860001308700403F2100D900413FDA00F2
:101BE200590884005A0885000008DB00DC015B0804
:101BF200F0005C08F1009B31B1238C3171082100A7
:101C0200E2007008E100052E61086204031D0A2E3D
:101C12000B2EB52D0E2E0E2E0E2E20006D088600D8
:101C220001308700403F2100D900413FDA005908C6
:101C320084005A0885000008DB00DC015B08F6001E
:101C42005C08F7009D3154258C3176082100DD00B7
:101C52005D08E900690803192F2E302E772E200027
:101C62006D08860001308700403F2100D900413FC6
:101C7200DA000130590784005A0803185A0A85000D
:101C82000008DB00DC015B08F6005C08F7009D3110
:101C920054258C3176082100DD005D08EA006A08CF
:101CA2000319542E552E772E20006D088600013020
:101CB2008700403F2100D900413FDA000230590736
:101CC20084005A0803185A0A85000008DB00DC0168
:101CD2005B08F6005C08F7009D3154258C317608CC
:101CE2002100DD005D08EB00772E772E6630690655
:101CF200031D7C2E7D2ECD2E20006D088600013026
:101D02008700403F2100D900413FDA005908840092
:101D12005A0885000008DB005B08EC0020006D0813
:101D22008600013087000130810741310318810AA2
:101D32006E088600013087000108840001308500AA
:101D420004308107003F2100E500013FE600023F29
:101D5200E700033FE80068082000E7002100670869
:101D62002000E600210066082000E5002100650849
:101D72002000E40021006C08D90059082000E80086
:101D820021006D08803151208C3120006508EE0061
:101D92006408ED00FF2FFF2F2E30F0009830F10085
:101DA2000230F2000030F300E9309F3199278C3184
:101DB20070087104031DDE2EDF2E952F20006D08A2
:101DC200860001308700403F2100D900413FDA0000
:101DD2000130590784005A0803185A0A850000087E
:101DE200DB005B08EC0020006D08860001308700F4
:101DF200403F2100D900413FDA00590884005A08C7
:101E020085000008BF3EDB00FF3003180030DC0015
:101E120000305C021A3003195B02031C112F132FCE
:101E22000130142F0030DD00DE015D08E3005E08A2
:101E3200E400392F20006D08860001308700403F02
:101E42002100D900413FDA00590884005A08850070
:101E52000008DB00DC015B08F0005C08F1009B314C
:101E6200CA238C3171082100E4007008E300392F85
:101E72006308640403193E2F3F2F542F20006E087D
:101E8200860001308700010884000130850004309B
:101E92008107003F2100E500013FE600023FE70025
:101EA200033FE800692F20006E088600013087009A
:101EB200010884000130850004308107003F2100C1
:101EC200E500013FE600023FE700033FE800692F1B
:101ED20020006D0886000130870002308107413101
:101EE2000318810A210068082000E7002100670822
:101EF2002000E600210066082000E50021006508B8
:101F02002000E40021006C08D90059082000E800F4
:101F120021006D08803151208C3120006508EE00CF
:101F22006408ED00FF2FFF2F20006D0886000130AE
:101F32008700403F2100D900413FDA005908840060
:101F42005A0885001200253A031DA82FA92FC62F73
:101F520020006D0886000130870001308107413181
:101F62000318810A2530F0000030F10021006D08CD
:101F7200D9005908F2009E3184268C3101302000AC
:101F8200ED000030EE00FF2FFF2F20006D088600CD
:101F9200013087000130810741310318810AED01C8
:101FA200EE01FF2FFF2F20006D0886000130870011
:101FB200403F2100D900413FDA00590884005A0805
:101FC20085000008DB00DC015B08F0005C08F10022
:101FD2006D08DD005D08F2009E3184268C31200000
:101FE2006D088600013087000130810741310318F6
:101FF200810A0130ED000030EE00FF2F0800F300EF
:102002007308F200F20DF20D21001D0872068339E9
:1020120072069D001D140330890B0D28000021005B
:102022009D1413289D1816281728132818281C08F1
:10203200F1001B08F0001D280800F601F11F2228FC
:1020420023282B28F009F109F00A0319F10AF601F5
:10205200F60A2B28F31F2E282F283928F209F30914
:10206200F20A0319F30A0130F4007408F60639285B
:10207200F701F801700871040319402841287628F5
:10208200F501F50A4E280130F035F10D890B45288E
:102092000130F4007408F5074E28F11F5128522828
:1020A2004428542854280130F735F80D890B552857
:1020B20071087302031D5F2870087202031C6228F4
:1020C200632869287008F2027108F33B77146928C3
:1020D2000130F136F00C890B6A280130F502031D3C
:1020E20073287428542876287628760803197A28C3
:1020F2007B288128F709F809F70A0319F80A8128C9
:102102007808F1007708F0008628080022005208BB
:102112002000A500220051082000A400220050083F
:102122002000A30022004F082000A2007308A5008F
:102132007208A4007108A3007008A2002208F4002B
:102142002308F5002408F6002508F7001730F736B3
:10215200F60CF50CF40C890BA828FF307405A000CE
:1021620000307505A10020082104031DB928BA28F2
:10217200DD282208F4002308F5002408F6002508CB
:10218200F7000130F435F50DF60DF70D890BC32874
:102192007708760475047404031DD028D128D62844
:1021A2000230F0000030F10009290330F000003065
:1021B200F100092909290929200A2104031DE2281D
:1021C200E32804292208F4002308F5002408F60075
:1021D2002508F7000930F435F50DF60DF70D890BDA
:1021E200EC2877087604750474040319F928FB288F
:1021F2000130FC280030F800F9017808F000790875
:10220200F100092909290430F0000030F100092900
:1022120008007008F4007108F5007208F6007308EF
:10222200F7000310760D770DF8007808FA007A08A7
:10223200031D1C291D2927290030F3000030F2005C
:102242000030F1000030F0009D299D297008F40053
:102252007108F5007208F6007308F7001F30F736B0
:10226200F60CF50CF40C890B30297408F800780888
:10227200F900F217FF30F005FF30F105FF30F205EB
:102282000030F3059630FA02FA1F482949296C29D1
:102292007A08803A973E03184F2950295B2900306B
:1022A200F3000030F2000030F1000030F0009D2910
:1022B2009D295B290130F336F20CF10CF00C890BED
:1022C2005C290130F4007408FA07031D69296A29A0
:1022D2005B298D298D2920307A02031C71297229EC
:1022E20086290030F3000030F2000030F1000030A7
:1022F200F0009D299D2986290130F035F10DF20D5E
:10230200F30D890B7E290130FA027A08031D8A290E
:102312008B297D298D298D297908031991299229E3
:102322009D29F009F109F209F309F00A0319F10AEA
:102332000319F20A0319F30A0800003020005405B9
:10234200DC0000305505DD0080305605DE007F30B0
:102352005705DF005F085E045D045C04031DB229BB
:10236200B329BB290030D7000030D6000030D50099
:102372000030D40000305805DC0000305905DD0083
:1023820080305A05DE007F305B05DF005F085E04A7
:102392005D045C04031DCE29CF29D8290030DB005F
:1023A2000030DA000030D9000030D800D829D71F19
:1023B200DB29DC29042A0030DC000030DD0000309B
:1023C200DE008030DF005409E0005509E1005609C3
:1023D200E2005709E300E00A0319E10A0319E20ADD
:1023E2000319E30A6008DC076108DD3D6208DE3D8F
:1023F2006308DF3D5F08D7005E08D6005D08D500A0
:102402005C08D400042ADB1F072A082A302A00307D
:10241200DC000030DD000030DE008030DF005809D3
:10242200E0005909E1005A09E2005B09E300E00A11
:102432000319E10A0319E20A0319E30A6008DC0737
:102442006108DD3D6208DE3D6308DF3D5F08DB00B9
:102452005E08DA005D08D9005C08D800302A8030B6
:10246200D7068030DB065B085702031D422A5A0852
:102472005602031D422A59085502031D422A5808D2
:1024820054020318452A462A482A03104B2A0314E9
:102492004B2A4B2A0800F80078080319512A522ABD
:1024A200662AF31F552A562A662A7009FA0071090C
:1024B200FB007209FC007309FD00FA0A0319FB0A0A
:1024C2000319FC0A0319FD0A6E2A7308FD0072083B
:1024D200FC007108FB007008FA00730872047104B2
:1024E2007004031D752A762A802A0030F30000301A
:1024F200F2000030F1000030F000FF2AFF2A96308F
:10250200F4007408F900912A0130F4007408F90704
:102512000130FD36FC0CFB0CFA0C890B8A2A912A3D
:10252200FE307D05031D962A972A852AAC2AAC2AFD
:102532000130F4007408F9070130FA070030FB3D5E
:102542000030FC3D0030FD3D0130FD36FC0CFB0C43
:10255200FA0C890BA62AFF307D05031DB12AB22A87
:10256200992ABE2ABE2A0130F9020130FA35FB0D42
:10257200FC0DFD0D890BB72ABE2AFC1BC12AC22AFB
:10258200C92A023079020318C72AC82AB42AC92ADA
:102592007918CC2ACD2AD52AFF30FA05FF30FB055F
:1025A2007F30FC05FF30FD050310F90C7908F400BB
:1025B200F501F601F7011830F435F50DF60DF70DBA
:1025C200890BDD2A7408FA047508FB047608FC04FA
:1025D2007708FD0478080319EF2AF02AF62AF31F78
:1025E200F32AF42AF62AFD17F62A7D08F3007C085E
:1025F200F2007B08F1007A08F000FF2A08009B3104
:102602006E239331042B22000E14082B082B8E10FC
:102612009D31F12593312200C901CA010030C80061
:102622000030C7000030C6000030C5005D308600B3
:102632000130870036308400013085000F30B5004C
:1026420016001A00B50B212B9B313B239331F3016A
:10265200F30A01308031092093310C30F5009830B3
:10266200F6009B31E3239331F301F30A0230803108
:10267200092093311830F5009830F6009B31E3239E
:102682009331432B053090310020933171082200A1
:10269200CA007008C90042302000BD00C830BC002A
:1026A2000030BB000030BA004430A3007F30A200EB
:1026B200C030A1000030A00022004908F0004A0802
:1026C200F100F201F301003092314C229331730890
:1026D2002000A7007208A6007108A5007008A400D7
:1026E20088313120933120002308C1002208C00024
:1026F2002108BF002008BE009531952593312000A6
:102702003D082200C80020003C082200C70020002B
:102712003B082200C60020003A082200C50006300D
:10272200B5003508F30002308031092093310030C2
:102732002200A6009830A7004808AB004708AA006C
:102742004608A9004508A800363088310120933197
:102752003630F5000130F6009B31E323933122003D
:102762004A08F1004908F0009B3181239331432B41
:10277200432B803102282000A701A801A001A1015A
:10278200C72B0130F6070030F73DC72BA601A60A7A
:1027920076088400770885001200203A0319D22BAC
:1027A200D32BE92B76088400770885000008F73ED2
:1027B200F800FF3003180030F900003079020530CC
:1027C20003197802031CE62BE72BE92BA601E92B60
:1027D2002608F800F9017808A2007908A300052C60
:1027E20076088400770885000008F800F901780867
:1027F200F0007908F1009C316624933171082000C1
:10280200A3007008A200052C22082304031D0A2C31
:102812000B2CC22B172C172C01302000A0000030EB
:10282200A1000130F6070030F73D542C76088400F1
:10283200770885000008F800F9017908003A0319C1
:10284200232C542C78082B3A0319122C063A03191C
:102852000D2C542C542C760884007708850000082F
:10286200D03EF800FF3003180030F900F809F909EA
:10287200F80A0319F90A20002808F1002708F000D5
:102882000A30F2000030F3009C314424933178087E
:1028920070072000A7007908713DA8000130F607F3
:1028A2000030F73D542C7608840077088500000834
:1028B200D03EF800FF3003180030F90000307902F2
:1028C2000A3003197802031C672C692C01306A2C28
:1028D2000030FA00FB017A082000A4007B08A50062
:1028E200862C76088400770885000008F800F90134
:1028F2007808F0007908F1009B31B1239331710817
:102902002000A5007008A400862C24082504031DBD
:102912008B2C8C2C2C2C8D2C20082104031D922C0A
:10292200932C9F2C2709F8002809F900F80A0319AB
:10293200F90A7808F6007908F700A52C2808F700AC
:102942002708F600A52CA52C080022004E0820001E
:10295200CD0022004D082000CC0022004C082000AF
:10296200CB0022004B082000CA003D08CD003C08E5
:10297200CC003B08CB003A08CA004A08BE004B080C
:10298200BF004C08C0004D08C1001730C136C00C52
:10299200BF0CBE0C890BC72CFF303E05C2000030B5
:1029A2003F05C3004208813EC800FF30433DC900D5
:1029B2004908803ABE0080303E02031DE22C1730E7
:1029C2004802031CE52CE62CE72C942D2000C91BA1
:1029D200EB2CEC2C4A2DFF30BE00FF30BF007F30C5
:1029E200C0000030C100480AFA2CC137C00CBF0C2D
:1029F200BE0C890BF62C4108C7004008C6003F08F0
:102A0200C5003E08C4004A084405BE004B084505FF
:102A1200BF004C084605C0004D084705C1004108EB
:102A220040043F043E04031D172D182D192D942D2B
:102A32004A08BE004B08BF004C08C0004D08C10048
:102A42001F30C136C00CBF0CBE0C890B222D4108B1
:102A520040043F043E0403192F2D302D392D440824
:102A6200CA074508CB3D4608CC3D4708CD3D392D28
:102A72004409BE004509BF004609C0004709C1001C
:102A82003E08CA053F08CB054008CC054108CD05E4
:102A92008B2D4A08BE004B08BF004C08C0004D08F1
:102AA200C1001F30C136C00CBF0CBE0C890B532DA8
:102AB200410840043F043E04031D602D612D6A2D30
:102AC2000030CD000030CC000030CB000030CA0016
:102AD2008B2D4A08BE004B08BF004C08C0004D08B1
:102AE200C1000130BE35BF0DC00DC10D890B732D64
:102AF200410840043F043E040319802D812D8B2D93
:102B0200BF30CD008030CC000030CB000030CA0096
:102B12008B2D8B2D4D08BD004C08BC004B08BB0013
:102B22004A08BA00942D080020003D088039C200EE
:102B32004208C7003D35C2004208CD00BC1FA22D8D
:102B4200A32DA52D4D14A52D4D080319A92DAA2D90
:102B5200BA2D4D0A031DAE2DAF2DB82D0030BD008C
:102B62000030BC000030BB000030BA00B82DBC17EA
:102B7200C32D0030BD000030BC000030BB0000306F
:102B8200BA00C32D41088039C2004208C706413548
:102B9200C2004208CC00C01FCF2DD02DD22D4C1424
:102BA200D22D4C080319D62DD72DE72D4C0A031D23
:102BB200DB2DDC2DE52D0030C1000030C0000030DF
:102BC200BF000030BE00E52DC017F02D0030C1005F
:102BD2000030C0000030BF000030BE00F02D4C08B5
:102BE2000319F42DF52DFB2D4D08031DF92DFA2D9A
:102BF200052EFB2D0030BD000030BC000030BB00B4
:102C02000030BA00FF2FFF2F3A08C2004208F0003E
:102C120040089C31AD24953171082000D300700822
:102C2200D2005208C200C301C401C5014508CB004D
:102C32004408CA004308C9004208C8005308C20039
:102C4200C301C401C5014508D1004408D0004308AE
:102C5200CF004208CE003B08C2004208F0003F0805
:102C62009C31AD24953171082000D3007008D20048
:102C72005208C200C301C401C5014208C807430883
:102C8200C93D4408CA3D4508CB3D5308C200C301B3
:102C9200C401C5014208CE074308CF3D4408D03DD8
:102CA2004508D13D3C08C2004208F0003E089C3174
:102CB200AD24953171082000D3007008D20052086B
:102CC200C200C301C401C5014208C8074308C93D87
:102CD2004408CA3D4508CB3D5308C200C301C401A4
:102CE200C5014208CE074308CF3D4408D03D450800
:102CF200D13D0830C835C90DCA0DCB0D890B7B2ECD
:102D02003B08C2004208F0003E089C31AD249531D8
:102D120071082000D3007008D2005208C807530877
:102D2200C93D0030CA3DCB3D3A08C2004208F0001E
:102D32003F089C31AD24953171082000D300700802
:102D4200D2005208C8075308C93D0030CA3DCB3DE6
:102D52000830C835C90DCA0DCB0D890BAA2E3A0809
:102D6200C2004208F0003E089C31AD249531710842
:102D72002000D3007008D2005208C8075308C93D8A
:102D82000030CA3DCB3D3B08C2004208F00040087B
:102D92009C31AD24953171082000D3007008D20017
:102DA2005208CE075308CF3D0030D03DD13D3C08FC
:102DB200C2004208F0003F089C31AD2495317108F1
:102DC2002000D3007008D2005208CE075308CF3D2E
:102DD2000030D03DD13D3C08C2004208F00040081E
:102DE2009C31AD24953171082000D3007008D200C7
:102DF2005208C2005308C300C401C5010830C235DD
:102E0200C30DC40DC50D890B002F4208CE07430820
:102E1200CF3D4408D03D4508D13D4808C20049088D
:102E2200C3004A08C4004B08C5001830C536C40C9C
:102E3200C30CC20C890B172F4208CE074308CF3DA3
:102E42004408D03D4508D13D0830C835C90DCA0DEA
:102E5200CB0D890B262F4D084C07C200C301C30DB1
:102E62004208823ED200FF30433DD300512F013051
:102E7200CE35CF0DD00DD10D890B392FCB1F422F5F
:102E8200432F452F4E14452F0130C835C90DCA0DA9
:102E9200CB0D890B462FFF30D207FF30D33D512F88
:102EA200D01F542F552F382F562FCC01CB1F5A2FFE
:102EB2005B2F7B2FFF304805C200FF304905C3005E
:102EC200FF304A05C4007F304B05C5004508440465
:102ED2004304420403196E2F6F2F722FCC01CC0AC8
:102EE2007B2F4E1C752F762F7B2FCC01CC0A7B2F8C
:102EF2007B2F7B2F4C0803197F2F802FAA2F0130A5
:102F0200CE070030CF3D0030D03D0030D13D511CC6
:102F12008B2F8C2FAA2F4E08C2004F08C3005008D7
:102F2200C4005108C5000130C600C537C40CC30C2B
:102F3200C20CC60B962F4508D1004408D0004308A6
:102F4200CF004208CE000130D2070030D33DAA2F75
:102F5200AA2F5308803AC20080304202031DB32FC9
:102F6200FF305202031CB62FB72FC12F7F30200033
:102F7200D1008030D0000030CF000030CE00F22FE0
:102F820020005308803AC20080304202031DCB2F3A
:102F9200013052020318CE2FCF2FDA2F003020003B
:102FA200D1000030D0000030CF000030CE00C70189
:102FB200F22F20005208C2004208CD00FF30CE0599
:102FC200FF30CF057F30D0050030D1054D1CEA2FF0
:102FD200EB2FED2FD017ED2F4D36C2004208D10056
:102FE200F22F4708C2004208D1045108BD00500820
:102FF200BC004F08BB004E08BA00FF2F08002E3459
:103002002E342E34253432342E3430346634253482
:10301200253420340034573465346C3466347234C9
:1030220069346534643465346E343A34003444347B
:103032006F346E3465343A34003449344E34463495
:1030420000344E3441344E34003469346E346634C4
:1030520000346E3461346E3400346C3466340034BF
:10363000640080010131890B192B0034FE00120057
:103640001E00FE0B1F2B00347030210099009801E2
:10365000220096010800013021009D0090309E005C
:103660009B019C010800FF3020009B009A019110F3
:1036700001309C00080000309B3198239B310130C1
:103680009B3198239B310800730872047104700405
:1036900003194B2B4C2B4F2B8030F3064F2B502B09
:1036A0000800BC3025009300950180309400033061
:1036B00096009201FF309100FC309E0508004934CD
:1036C0006E346934743461346C3469347A346534FA
:1036D000563461346C347534653400349C310224C2
:1036E0009B319B3124239B31803105209B319B31C1
:1036F00051239B319B3133239B319B312B239B31B6
:1037000008007108F3007008F200F336F20CF3368B
:10371000F20C72082500910070080339F2000430A1
:10372000F235890B902B1308CF39720493000800EF
:10373000F20022000C109C2B72089D3128259B3131
:10374000A12B22008C17A42B0B30F1006230890BC7
:10375000A72BF10BA72B0032AD2B22008C13B02B23
:1037600008007008D03EF200FF30713DF3000030D9
:1037700073020A3003197202031CBF2BC12B0130E4
:10378000C22B0030F400F5017408F0007508F10058
:10379000C92B08007008BF3EF200FF30713DF300F6
:1037A000003073021A3003197202031CD82BDA2B73
:1037B0000130DB2B0030F400F5017408F0007508CF
:1037C000F100E22B0800F801F901F52B75087807E4
:1037D00084007608793D850000089D31BB259B312A
:1037E0000130F8070030F93DF52B750878078400A3
:1037F0007608793D85001200031DFF2B002CE62B77
:10380000012C0800220090018F018C018D018E0196
:103810000F30210090008C01FF308D00F8308E00B9
:10382000DF308F00FF3023008F003F308D000730E6
:1038300090003F308C00240090018D0121009517ED
:1038400022009D01080080302000D7065B08F300AD
:103850005A08F2005908F1005808F0005708F7001C
:103860005608F6005508F5005408F4008A31102275
:103870009C3173082000D7007208D6007108D5006B
:103880007008D400432C0800F401F501472C701C8B
:103890004A2C4B2C4F2C7208F4077308F53D01306D
:1038A000F235F30D890B502C0130F136F00C890BF9
:1038B000552C70087104031D5E2C5F2C472C602C66
:1038C0007508F1007408F000652C0800F401F40A92
:1038D00020307006710403196E2C6F2C802C700838
:1038E000F73EF200FF30713DF30000307302053007
:1038F00003197202031C7D2C7E2C802CF401802C79
:103900007408F200F3017208F0007308F100882CCB
:103910000800F7007108F5007008F4007708F2005D
:103920007208F600942C942C7608860001308700EB
:10393000F60A7508F3007408F200F40A0319F50A90
:1039400072088400730885000008C03F8908031DC1
:10395000AA2CAB2C942CAC2C0800F800F401F50137
:103960007008F200F3017208F6007308F700B82C33
:10397000781CBB2CBC2CC02C7608F4077708F53DCE
:103980000130F635F70D890BC12C0310F80C7808BF
:10399000031DCB2CCC2CB82CCD2C7508F100740851
:1039A000F000D22C0800F7007708F2007208F60049
:1039B000DE2C0130F2007208F707DE2C7708860053
:1039C000013087000108031DE62CE72CD92CE82CD8
:1039D0007608F2000130F300F209F309F20A031944
:1039E000F30A7708F4000130F50072087407F0005C
:1039F0007308753DF100FC2C08002000A300A10114
:103A0000A201162D2008F900FA017908F0007A08C1
:103A1000F1007808FB007B08F2009E3184269C317F
:103A200001302000A1070030A23D162D21082307F8
:103A3000F90079088600013087000108FA007A0849
:103A4000A0002008031D252D262D022D272D08005E
:103A5000F000701C2C2D2D2D312D22000C15352D34
:103A6000352D22000C11352D352DF01C382D392D1A
:103A70003C2D8C153F2D3F2D8C113F2D3F2D701D62
:103A8000422D432D462D0C16492D492D0C12492D42
:103A9000492DF01D4C2D4D2D502D8C16532D532D91
:103AA0008C12532D532D08007608BF3EF800FF30CE
:103AB000773DF900003079021A3003197802031CAF
:103AC000622D642D0130652D0030FA00FB017A086B
:103AD000FC007B08FD00782D7708F1007608F000E7
:103AE0009B31CA239D317108FD007008FC00782DC0
:103AF0007C087D0403197D2D7E2D862D20307604D3
:103B0000F60000307704F700862D862D080022008D
:103B1000A3002108A5002008A400D301D401AB2DE7
:103B200024302100EE006E082000ED002200220863
:103B30002100EF006F082000EE00220023088C31E6
:103B400089249D3120006D082200D30720006E08D3
:103B50002200D43DAB2D24088400250885001200E6
:103B6000031DB32DB42D902DB52D5408A10053087D
:103B7000A000BA2D0800F40074080F39F100710894
:103B8000F2007408F039F1007108F300C72D22002B
:103B90000C14CA2D7308F1000430F136890BCD2DB9
:103BA00071089D3128259D31D52D22008C17D82DE7
:103BB0001A30890BD92D0032DD2D22008C13E02D17
:103BC00072089D3128259D31E52D22008C17E82DA6
:103BD0001A30890BE92D0032ED2D22008C13F02DC7
:103BE000080000309D3128259D313430F300F2303B
:103BF000890BF82DF30BF82D03309B3198239D3161
:103C00000D30F300FC30890B032EF30B032E033031
:103C10009B3198239D311D30F3009130890B0E2E7E
:103C2000F30B0E2E000003309B3198239D310230A0
:103C30009B3198239D3102309B3198239D31083070
:103C40009B3198239D3100309B3198239D310C305E
:103C50009B3198239D3100309B3198239D31063054
:103C60009B3198239D31080000307005F80000302A
:103C70007105F90080307205FA007F307305FB0092
:103C80007B087A0479047804031D472E482E502EB1
:103C90000030F3000030F2000030F1000030F0009E
:103CA00000307405F80000307505F90080307605A5
:103CB000FA007F307705FB007B087A0479047804EA
:103CC000031D632E642E6C2E0030F7000030F600CA
:103CD0000030F5000030F40077087306031D7A2EDB
:103CE00076087206031D7A2E75087106031D7A2E5A
:103CF0007408700603197D2E7E2E802E0310832EED
:103D00000314832E832E080072080319882E892E2F
:103D10008F2E7208031D8D2E8E2E942E8F2E7008DE
:103D2000803104209E31DE2E7208033E8600013071
:103D300087001600010403199E2E9F2EBF2E7208C5
:103D4000033E860001308700403FF300413FF4000E
:103D5000720A860001308700403FF500413FF600BF
:103D60007608803AF7007408803A7702031DBA2E6D
:103D7000730875020318BD2EBE2EDE2EBF2E7008EE
:103D8000F3007208860001308700720A8400013057
:103D9000850000080107F4007408860001308700E0
:103DA00073088100720A86000130870001308107A4
:103DB00041310318810ADE2EDE2EDE2E0800F601C8
:103DC000F31FE32EE42EEC2EF209F309F20A031995
:103DD000F30AF601F60AEC2EF11FEF2EF02EF62E66
:103DE000F009F109F00A0319F10AF62E70087104BE
:103DF0000319FB2EFC2E2B2FF501F50A092F01309C
:103E0000F035F10D890B002F0130F4007408F5072F
:103E1000092FF11F0C2F0D2FFF2E0F2F0F2F7108C1
:103E20007302031D152F70087202031C182F192F1F
:103E30001E2F7008F2027108F33B1E2F0130F1367D
:103E4000F00C890B1F2F0130F502031D282F292F9D
:103E50000F2F2B2F2B2F760803192F2F302F362FB4
:103E6000F209F309F20A0319F30A362F7308F10075
:103E70007208F0003B2F08002000AB002200591C04
:103E8000422F432F4D2F20002B08FC007C08F80008
:103E900024089C31FD249F314D2F2000A61B512F5B
:103EA000522F572F2608AA002508A900592FA9012B
:103EB000AA01A701A8016E2F2030F0000030F10008
:103EC00020002B08FC007C08F2009E3184269F31E4
:103ED00001302000A7070030A83D6E2F2808803A47
:103EE000FC002A08803A7C02031D782F290827024B
:103EF000031C7B2F7C2F5C2F22005918802F812FD1
:103F00008B2F20002B08FC007C08F80024089C3133
:103F1000FD249F318B2F200024089C31D3249F3116
:103F2000200029087007A4002A08713DA500982FD9
:103F30000800F6007608F4007408F9007108F8002B
:103F40007008F7000130F2020030F33B720A031DE3
:103F5000AD2F730A031DAD2FAE2FC02FF001F1015D
:103F6000FF2FFF2FC02F0130F4007408F907013034
:103F7000F7070030F83D0130F2020030F33BC02F6C
:103F800079088600870101080319C72FC82FE82F79
:103F9000770884007808850012000319D02FD12FEC
:103FA000E82F720873040319D62FD72FE82F77084C
:103FB0008400780885000008F400790886008701ED
:103FC000010874060319E52FE62FB32FE82FE82F19
:103FD00077088400780885000008F400F501F409EA
:103FE000F509F40A0319F50A790886008701010822
:103FF0007407F00075080318750AF100FF2F080018
:020000040001F9
:04000E00E4F9FFDE34
:00000001FF
