:020000040000FA
:08000000803102288731ED2F49
:10000A0021008C118C150530890B0928003020003D
:10001A008C190130F0002330890B1128700815283B
:10002A0008007008F4007108F5007208F6007308F9
:10003A00F7000310760D770DF8007808FA007A08B1
:10004A00031D2828292833280030F3000030F20045
:10005A000030F1000030F000A928A9287008F40047
:10006A007108F5007208F6007308F7001F30F736BA
:10007A00F60CF50CF40C890B3C287408F800780887
:10008A00F900F217FF30F005FF30F105FF30F205F5
:10009A000030F3059630FA02FA1F542855287828BA
:1000AA007A08803A973E03185B285C286728003054
:1000BA00F3000030F2000030F1000030F000A9280F
:1000CA00A92867280130F336F20CF10CF00C890BE1
:1000DA0068280130F4007408FA07031D7528762889
:1000EA0067289928992820307A02031C7D287E28BF
:1000FA0092280030F3000030F2000030F1000030A6
:10010A00F000A928A92892280130F035F10DF20D46
:10011A00F30D890B8A280130FA027A08031D962802
:10012A009728892899289928790803199D289E28AB
:10013A00A928F009F109F209F309F00A0319F10AE9
:10014A000319F20A0319F30A08002100BC00BA01D4
:10015A00BB01200048082100D000200047082100E8
:10016A00CF00200046082100CE00200045082100CB
:10017A00CD0050082000B80021004F082000B70029
:10018A0021004E082000B60021004D082000B500CD
:10019A000030BC000030BB000030BA000030B900AB
:1001AA009F31522780310318DB28DC28F6280130DA
:1001BA002100BA000030BB005008F3004F08F200DB
:1001CA004E08F1004D08F00099319D2180317308E5
:1001DA002100D0007208CF007108CE007008CD004F
:1001EA00F6282100D301D401220037082100C100DA
:1001FA00220036082100C0003A083B04031D0629E4
:10020A0007290D2922003A1D0B290C2934290D2909
:10021A0021003A083B04031D1329142919292B30FC
:10022A00A4000030A5001E292D30A4000030A5002E
:10023A001E2924082000CA0021005308A03E860077
:10024A000130870020004A08810001302100D307CD
:10025A000030D43DFF30C007FF30C13D34292100B2
:10026A005008F3004F08F2004E08F1004D08F00064
:10027A009E314526803170037104031D45294629A4
:10028A00AD2920004908BF3ECA00FF3003180030DC
:10029A00CB0000304B021A3003194A02031C5629BC
:1002AA005829013059290030CC00CD014C082100D1
:1002BA00A60020004D082100A70074292000490843
:1002CA00CA00CB014A08F0004B08F1009931D82145
:1002DA00803171082100A7007008A6007429260839
:1002EA002704031979297A2984292330F0009930BF
:1002FA00F1005308A03E9A31F12280318F292B3028
:10030A00F0009930F10021005308A03E9A31F12201
:10031A0080318F29FD302100C007FF30C13DA03058
:10032A002000CA004A08A400210041082000A600B3
:10033A00210040082000A50021003C089D31252508
:10034A00803120002508C6002408C500EC2FEC2FB8
:10035A0021005008F3004F08F2004E08F1004D0842
:10036A00F0009E314526803170087104031DBE29B4
:10037A00BF29262A20004908BF3ECA00FF300318B9
:10038A000030CB0000304B021A3003194A02031C1A
:10039A00CF29D1290130D2290030CC00CD014C0817
:1003AA002100A80020004D082100A900ED29200005
:1003BA004908CA00CB014A08F0004B08F1009931FC
:1003CA00D821803171082100A9007008A800ED2900
:1003DA00280829040319F229F329FD292730F000F6
:1003EA009930F1005308A03E9A31F1228031082A4F
:1003FA002F30F0009930F10021005308A03E9A31C5
:10040A00F1228031082AFD302100C007FF30C13DAA
:10041A00A0302000CA004A08A40021004108200098
:10042A00A600210040082000A50021003C089D31BB
:10043A002525803120002508C6002408C500EC2F98
:10044A00EC2F3F302100D8008030D7000030D60092
:10045A000030D500D101D2015008F3004F08F20054
:10046A004E08F1004D08F0000030F7000030F600A9
:10047A000030F5000030F4009C31D5248031031897
:10048A00472A482A032B7B2A7B2A41302000A300D3
:10049A002030A2000030A1000030A000210058083E
:1004AA002000A700210057082000A60021005608B6
:1004BA002000A500210055082000A40095319525AB
:1004CA008031200023082100D800200022082100C2
:1004DA00D700200021082100D60020002008210092
:1004EA00D5000130D1070030D23D7B2A21005008C7
:1004FA002000B80021004F082000B70021004E0854
:10050A002000B60021004D082000B5004130A300AC
:10051A002030A2000030A1000030A00021005808BD
:10052A002000A700210057082000A6002100560835
:10053A002000A500210055082000A400953195252A
:10054A00803120002308BC002208BB002108BA0021
:10055A002008B9009F31522780310318B52AB62ADC
:10056A004A2ADA2ADA2A4130F3002030F20000302F
:10057A00F1000030F00021005808F7005708F60093
:10058A005608F5005508F4008831182080317308A0
:10059A002100D8007208D7007108D6007008D5006B
:1005AA00FF30D107FF30D23DDA2A2100500820005F
:1005BA00B80021004F082000B70021004E08200093
:1005CA00B60021004D082000B5002100580820007F
:1005DA00BC00210057082000BB002100560820005B
:1005EA00BA00210055082000B9009F3152278031F6
:1005FA00031C002B012BB82A032B032B20004908CC
:10060A00CA00CB014A08F6004B08F7009B31BB230E
:10061A00803176082000CC004C082100C200420834
:10062A002000CA004A082100BF0067304206031DA5
:10063A001F2B202B4A2B220038083904031D262B96
:10064A00272B2B2B0130B8000030B9003908803A2B
:10065A002000CA0080304A02031D362B01302200D6
:10066A0038020318392B3A2B402B06302100BD00E3
:10067A000030BE005E2B220039082100BE00220095
:10068A0038082100BD005E2B5E2B2200B91B4E2BC1
:10069A004F2B572B39082100BE00220038082100B1
:1006AA00BD005E2B06302100BD000030BE005E2B6F
:1006BA005E2B67304206031D632B642B9D2B520869
:1006CA00803A2000CA007F304A02031D6F2BFC309B
:1006DA0021005102031C722B732B962B21003D081B
:1006EA00FF3E2000CA00FF3021003E3D2000CB0023
:1006FA004B08803ACC0021005208803A20004C0274
:10070A00031D8B2B2100510820004A02031C8E2B4B
:10071A008F2B962B66302000CA004A082100BF00A2
:10072A009D2B65302000CA004A082100BF009D2B7E
:10073A003E08B5003D08B40067304206031DA62BEB
:10074A00A72BB22B66303F06031DAC2BAD2BB72B64
:10075A00D21FB02BB12BB72BB22B0130B40700300C
:10076A00B53DB72B66303F06031DBC2BBD2BD82BDE
:10077A00D21FC02BC12BCC2B3F30D8008030D700E2
:10078A000030D6000030D500D101D201CC2B673021
:10079A0042060319D12BD22BD82B5108B407520881
:1007AA00B53DD82BD82BCB01CC015008C6004F0839
:1007BA00C5004E08C4004D08C3005808A3005708D6
:1007CA00A2005608A1005508A0009A2C210058083A
:1007DA00F3005708F2005608F1005508F0004608E1
:1007EA00F7004508F6004408F5004308F40088318C
:1007FA001820803173082000B0007208AF00710819
:10080A00AE007008AD009231092280312000300814
:10081A002100CA0020002F082100C90020002E084C
:10082A002100C80020002D082100C7004A08F30053
:10083A004908F2004808F1004708F0008031162004
:10084A00803171082100B9007008B8004A082000F8
:10085A00A700210049082000A6002100480820001E
:10086A00A500210047082000A40021005808200004
:10087A00A300210057082000A200210056082000EA
:10088A00A100210055082000A0009531952580314E
:10089A0020002308B8002208B7002108B600200863
:1008AA00B500210046082000BC00210045082000B0
:1008BA00BB00210044082000BA00210043082000A0
:1008CA00B9009A3169228031200038082100C60017
:1008DA00200037082100C500200036082100C40086
:1008EA00200035082100C3004130F3002030F20017
:1008FA000030F1000030F0005808F7005708F60001
:10090A005608F5005508F40088311820803173081C
:10091A002100D8007208D7007108D6007008D500E7
:10092A000130CB070030CC3D9A2C4C08803A20008D
:10093A00CA0021003508803A20004A02031DA82C6B
:10094A00210034084B02031CAB2CAC2CEB2BAD2C36
:10095A0040302000A300A030A2000030A1000030E7
:10096A00A000210058082000A700210057082000F5
:10097A00A600210056082000A500210055082000E5
:10098A00A400953195258031200023082100CA0052
:10099A00200022082100C900200021082100C800E7
:1009AA00200020082100C70046082000B8002100C6
:1009BA0045082000B700210044082000B6002100A5
:1009CA0043082000B50021004A082000BC0021008D
:1009DA0049082000BB00210048082000BA00210075
:1009EA0047082000B9009F31522780310318FE2C96
:1009FA00FF2C092D00302100CA000030C900003048
:100A0A00C8000030C700302D21004608F300450811
:100A1A00F2004408F1004308F0004A08F7004908C8
:100A2A00F6004808F5004708F4009C31D5248031C7
:100A3A00031C202D212D302D21003818252D262D7F
:100A4A00302D0030CA000030C9000030C800003024
:100A5A00C700302D302D21004A08F3004908F20062
:100A6A004808F1004708F0005008F7004F08F60060
:100A7A004E08F5004D08F4008931F72180317308DA
:100A8A002100C6007208C5007108C4007008C300BE
:100A9A002308D8002208D7002108D6002008D5004C
:100AAA0065303F0603195A2D5B2D602D5208B70099
:100ABA005108B600622DB601B701B201B301B00107
:100ACA00B101CB01CC01952E21005808F30057083B
:100ADA00F2005608F1005508F0004608F7004508EC
:100AEA00F6004408F5004308F400883118208031E4
:100AFA0073082000B0007208AF007108AE007008D9
:100B0A00AD00923109228031200030082100CA004C
:100B1A0020002F082100C90020002E082100C8004B
:100B2A0020002D082100C7004A08F3004908F200F6
:100B3A004808F1004708F00080311620803171081A
:100B4A002100B9007008B80022003A1AAD2DAE2D66
:100B5A00C42D210038083904031DB42DB52DC42D28
:100B6A0067304206031DBA2DBB2DC42DB71FBE2DFB
:100B7A00BF2DC42D0130B0070030B13D222E210017
:100B8A0032083304031DCA2DCB2D042EB71FCE2DD8
:100B9A00CF2D042E2E302000CA0021005308A03E7B
:100BAA0086000130870020004A08810001302100B8
:100BBA00D3070030D43DFF30C007FF30C13D0130BC
:100BCA00B2000030B300042E042E30302000CA00D8
:100BDA0021005308A03E86000130870020004A0801
:100BEA00810001302100D3070030D43DFF30C00717
:100BFA00FF30C13DFF30B007FF30B13D042E300851
:100C0A003104031D092E0A2EEA2D0B2E3808303E18
:100C1A002000CA0021005308A03E86000130870048
:100C2A0020004A08810001302100D3070030D43D5A
:100C3A00FF30C007FF30C13D222E4A082000A7001E
:100C4A00210049082000A600210048082000A5002C
:100C5A00210047082000A400210058082000A30012
:100C6A00210057082000A200210056082000A100F8
:100C7A00210055082000A0009531952580312000DB
:100C8A002308B8002208B7002108B6002008B500DA
:100C9A00210046082000BC00210045082000BB00B6
:100CAA00210044082000BA00210043082000B900AE
:100CBA009A3169228031200038082100C6002000BC
:100CCA0037082100C500200036082100C400200092
:100CDA0035082100C3004130F3002030F200003013
:100CEA00F1000030F0005808F7005708F6005608DF
:100CFA00F5005508F4008831182080317308210066
:100D0A00D8007208D7007108D6007008D500FF30E5
:100D1A00B607FF30B73D0130CB070030CC3D952EEA
:100D2A004C08803A2000CA0021003508803A200089
:100D3A004A02031DA32E210034084B020318A62ED3
:100D4A00A72EB92E21005408803A2000CA0080300C
:100D5A004A02031DB32E4B3021005302031CB62E48
:100D6A00B72E692DB92EB92E210032083304031D7E
:100D7A00BF2EC02ED72E22003A1EC42EC52ED72E25
:100D8A002E302000CA0021005308A03E8600013000
:100D9A00870020004A08810001302100D307003073
:100DAA00D43DD72E21005308A03E8600013087008B
:100DBA00810165303F06031DE32EE42ED42F4F3008
:100DCA00CB000030CC004B08A03E860001308700E3
:100DDA008101BA01BB01D21FF32EF42EFE2E01307F
:100DEA00BA000030BB00D109D209D10A0319D20ACC
:100DFA00FE2E0230BD000030BE003A2FFF30210027
:100E0A00CB07FF30CC3D0A30F0000030F100520829
:100E1A00F3005108F2009D31812580317008303E7F
:100E2A002000CA0021004B08A03E8600013087003E
:100E3A0020004A0881000A30F6000030F70021003D
:100E4A005208F9005108F8009031002080317708E3
:100E5A002100D2007608D100FF30BD07FF30BE3D29
:100E6A00FF30C007FF30C13D3A2F51085204031D1D
:100E7A003F2F402F032F3E08803A2000CA008030BF
:100E8A004A02031D4B2F013021003D0203184E2F49
:100E9A004F2F032F502FFF302100CB07FF30CC3DBF
:100EAA003A083B04031D5A2F5B2F602F2B30AA00F0
:100EBA000030AB00652F2D30AA000030AB00652F43
:100ECA002A082000CA0021004B08A03E86000130F3
:100EDA00870020004A088100FF302100C007FF3048
:100EEA00C13DFF30CB07FF30CC3D20004908BF3E53
:100EFA00CA00FF3003180030CB0000304B021A3012
:100F0A0003194A02031C8A2F8C2F01308D2F0030BF
:100F1A00CC00CD014C082100AE0020004D08210074
:100F2A00AF00A82F20004908CA00CB014A08F000E8
:100F3A004B08F1009931D821803171082100AF00A6
:100F4A007008AE00A82F2E082F04031DAD2FAE2F58
:100F5A00B32F6530AC000030AD00B82F4530AC007F
:100F6A000030AD00B82F2C082000CA0021004B0821
:100F7A00A03E86000130870020004A088100FF3029
:100F8A002100C007FF30C13D4B08A03EF0000130F0
:100F9A00F1005308A03E9A31F1228031D42FA030BB
:100FAA002000CA004A08A400210041082000A60027
:100FBA00210040082000A50021003C089D3125257C
:100FCA00803120002508C6002408C500EC2F08003F
:100FDA0020308400013085001C3099316C21873122
:100FEA00A030840001308500503099316C2187315E
:100FFA0020009E31C82E22008C1121008C11A330B2
:10100A00890B0528000021008C150D30890B0B284F
:10101A000000003020008C190130F0009630890B56
:10102A0014281728080077088039F8007808200063
:10103A00A4007735F8007808AB00F61F2528262883
:10104A0028282B1428282B0803192C282D283E2859
:10105A002B0A031D312832283B280030F7000030C4
:10106A00F6000030F5000030F4003B28F617F701CF
:10107A0047280030F7000030F6000030F500003055
:10108A00F400472873088039F8007808A4067335F5
:10109A00F8007808AC00F21F5328542856282C145C
:1010AA0056282C0803195A285B286C282C0A031D79
:1010BA005F28602869280030F3000030F200003011
:1010CA00F1000030F0006928F217F30174280030AB
:1010DA00F3000030F2000030F1000030F000730835
:1010EA00720471047004031D7B287C289628003042
:1010FA00F7000030F6000030F5000030F4008030D0
:10110A00F6047F30F7042408F8007808F704770813
:10111A00F3007608F2007508F1007408F000F62969
:10112A00F6292B08031D9A289B28AD280030F700C2
:10113A000030F6000030F5000030F4007708F300C4
:10114A007608F2007508F1007408F000F629F6290D
:10115A002C08F800F901F809F909F80A0319F90A3B
:10116A002B087807FA0079080318790AFB007A082D
:10117A007F3EA50000307B3DA6007708A3007608D5
:10118A00A2007508A1007408A0000030F700003022
:10119A00F6000030F5000030F4000030AA000030FC
:1011AA00A9000030A8000030A700AC011E292C08B5
:1011BA000319E028E128FD280130A035A10DA20D70
:1011CA00A30D890BE2280130F435F50DF60DF70D64
:1011DA00890BE928AA1FF228F328F5287414F528A0
:1011EA000130A735A80DA90DAA0D890BF628FD28EF
:1011FA0073082302031D0B2972082202031D0B29FF
:10120A0071082102031D0B2970082002031C0E29F4
:10121A000F2919292A177008A0027108A13B720820
:10122A00A23B7308A33B19290130F8007808AC07E0
:10123A001E291A302C02031C23292429DC282529DB
:10124A00230822042104200403192C292D294929C1
:10125A002714492949290130F435F50DF60DF70D02
:10126A00890B3129AA1F3A293B293D2974143D29A2
:10127A000130A735A80DA90DAA0D890B3E29FF300B
:10128A00A507FF30A63D4929F61F4C294D293029CB
:10129A004E29AC01AA1F522953297329FF30270569
:1012AA00F800FF302805F900FF302905FA007F30E1
:1012BA002A05FB007B087A04790478040319662955
:1012CA0067296A29AC01AC0A7329741C6D296E2935
:1012DA007329AC01AC0A7329732973292C080319E1
:1012EA0077297829A2290130F4070030F53D00302A
:1012FA00F63D0030F73D771C83298429A22974081A
:10130A00F8007508F9007608FA007708FB00013042
:10131A00FC00FB37FA0CF90CF80CFC0B8E297B0845
:10132A00F7007A08F6007908F5007808F400013029
:10133A00A5070030A63DA229A2292608803AF8006E
:10134A0080307802031DAB29FF302502031CAE2929
:10135A00AF29BC29FF302000A5000030A6000030CC
:10136A00F7000030F6000030F5000030F4002000ED
:10137A002608803AF80080307802031DC629013019
:10138A0025020318C929CA29D6292000A501A601C0
:10139A000030F7000030F6000030F5000030F400AD
:1013AA00A40120002508F8007808AB002B1CDE29D0
:1013BA00DF29E129F617E5297F30F8007808F605D4
:1013CA002B36F8007808F7002408F8007808F704A4
:1013DA007708F3007608F2007508F1007408F00047
:1013EA00F6290800730880392000A0002008F800B8
:1013FA007335A0002008FA00F21F042A052A072ADA
:10140A007A14072A7A0803190B2A0C2A1D2A7A0A3F
:10141A00031D102A112A1A2A0030F3000030F200A4
:10142A000030F1000030F0001A2AF217F301262AE0
:10143A000030F3000030F2000030F1000030F0001C
:10144A00262A77088039A0002008F900790878064A
:10145A000319302A312A332A7817332A7735A0001C
:10146A002008F900F61F3A2A3B2A3D2A79143D2A18
:10147A0079080319412A422A532A790A031D462A5E
:10148A00472A502A0030F7000030F6000030F500F5
:10149A000030F400502AF617F7015B2A0030F700F3
:1014AA000030F6000030F5000030F4007A087902C6
:1014BA000318602A612AA72A781F642A652A6A2AD9
:1014CA008030A0002008F8066A2A7A08A0002008BE
:1014DA00FB007908A0002008FA007B08A000200879
:1014EA00F9007008A0002008FB007408A00020087A
:1014FA00F0007B08A0002008F4007108A000200872
:10150A00FB007508A0002008F1007B08A000200855
:10151A00F5007208A0002008FB007608A000200849
:10152A00F2007B08A0002008F6007308A00020083B
:10153A00FB007708A0002008F3007B08A000200821
:10154A00F700A72AFB017A08A000A101A009A109B6
:10155A00A00A0319A10A79082007A2002108031882
:10156A00210AA3002308803AA40080302402031D24
:10157A00C02A1A302202031CC32AC42A022B730867
:10158A00720471047004031DCB2ACD2A0130CE2ABD
:10159A0000302000A0002008FB000030F3000030DB
:1015AA00F2000030F1000030F0007908A0002008B5
:1015BA00FA00092B022B7B1CE32AE42AEB2A7B364E
:1015CA0001382000A0002008FB00EE2A0310FB0CC3
:1015DA00EE2A701CF12AF22AF42AFB17F42A0130A7
:1015EA002000A000F337F20CF10CF00CA00BF72A44
:1015FA000130A0002008FA07022B79087A02031C9E
:10160A00072B082BE02A092B781B0C2B0D2B4B2BB5
:10161A007A08031D112B122B1C2B0030F30000300B
:10162A00F2000030F1000030F0006F2C6F2C7408CB
:10163A00F0077508F13D7608F23D7708F33D731C13
:10164A00272B282BF32B7B1C2B2B2C2B332B7B367A
:10165A0001382000A0002008FB00362B0310FB0CE9
:10166A00362B701C392B3A2B3C2BFB173C2B0130A9
:10167A002000A000F337F20CF10CF00CA00B3F2B6A
:10168A000130A0002008FA07F32BF32B7308803AE5
:10169A002000A0007708803A2002031D5E2B7608FE
:1016AA007202031D5E2B75087102031D5E2B7408FE
:1016BA0070020318612B622BAE2BFF30A000FF30A3
:1016CA00A100FF30A200FF30A3007408A40075082F
:1016DA00A5007608A6007708A7007009A800710976
:1016EA00A9007209AA007309AB00A80A0319A90A7A
:1016FA000319AA0A0319AB0A2808A4072908A53D51
:10170A002A08A63D2B08A73D2408A0072508A13DC5
:10171A002608A23D2708A33D2308F3002208F20069
:10172A002108F1002008F0008030A0002008F80607
:10173A00FB09FB0A7B08031DA32BA42BB62B013044
:10174A00F0070030F13D0030F23D0030F33DB62B9A
:10175A00B62B7408F0027508F13B7608F23B77085D
:10176A00F33B7308720471047004031DBD2BBE2B76
:10177A00ED2B7B08031DC22BC32BED2B0030F3008E
:10178A000030F2000030F1000030F0006F2C6F2CB6
:10179A00ED2B0130F035F10DF20DF30D890BCF2B46
:1017AA00FB1FD82BD92BDA2B70147B1CDD2BDE2BDD
:1017BA00E12B0314FB0DE42B0310FB0DE42B7A0839
:1017CA000319E82BE92BED2B0130FA02ED2BED2B57
:1017DA00F21FF02BF12BCE2BF32BF32BF901FB1F6E
:1017EA00F72BF82B0A2C7B087F390319FD2BFE2BCC
:1017FA00012CF901F90A0A2C701C042C052C0A2C5C
:10180A00F901F90A0A2C0A2C0A2C790803190E2C58
:10181A000F2C3F2C0130F0070030F13D0030F23D33
:10182A000030F33D731C1A2C1B2C3F2C700820002F
:10183A00A0007108A1007208A2007308A300013079
:10184A00A400A337A20CA10CA00CA40B262C2308DD
:10185A00F3002208F2002108F1002008F0007A0AB9
:10186A000319382C392C3F2C0130A0002008FA0724
:10187A003F2C3F2C7A0A0319432C442C4A2C7A0811
:10188A00031D482C492C5A2C4A2C0030F3000030F6
:10189A00F2000030F1000030F0007A08031D562CE7
:1018AA00572C5A2CF8015A2C5A2C7A1C5D2C5E2C77
:1018BA00602CF217652C7F302000A0002008F2056A
:1018CA007A362000A0002008F300F81F6D2C6E2C39
:1018DA006F2CF31708002000E8004E0886008701E5
:1018EA00403FD000413FD100500884005108850094
:1018FA001200253A031D822C832CD82F4E0886000D
:10190A0087010130810741310318810A2200B6019B
:10191A00B701BA01BB01FF30B800FF30B90020009F
:10192A00DA01DB01002DDB2C22003A1420004E08DC
:10193A00860087010130810741310318810A002D91
:10194A002200BA1420004E08860087010130810760
:10195A0041310318810A002D22003A1520004E0851
:10196A00860087010130810741310318810A002D61
:10197A002200BA1520004E0886008701013081072F
:10198A0041310318810A002D22003A1620004E0820
:10199A00860087010130810741310318810A002D31
:1019AA000130DA000030DB00002D002D4E088600E1
:1019BA008701403FD000413FD100500884005108C0
:1019CA0085000008D200D3015308003A0319EE2C0F
:1019DA00D52C5208203A0319BD2C033A0319C92CF5
:1019EA00083A0319B12C063A0319992C1D3A03191E
:1019FA00A52CD52C002D5A085B040319052D062D9C
:101A0A00DB2C22003A1C0A2D0B2D102DFD30BA05B5
:101A1A00FF30BB05102D20004E0886008701403F8D
:101A2A00D000413FD10050088400510885001200BF
:101A3A002E3A031D212D222DB92D2200B801B901FC
:101A4A0020004E08860087010130810741310318C2
:101A5A00810A4E0886008701403FD000413FD100ED
:101A6A00500884005108850012002A3A031D3E2DB1
:101A7A003F2D552D4E0886008701013081074131DF
:101A8A000318810A4F08860087010108840085012E
:101A9A0002308107003F2200B800013FB900B92D8A
:101AAA0020004E0886008701403FF600413FF700BC
:101ABA0091311F218C3177082200B9007608B800CD
:101ACA00702D20004E0886008701013081074131C0
:101ADA000318810A702D20004E0886008701403FB6
:101AEA00D000413FD1005008840051088500000809
:101AFA00D03ED200FF3003180030D300003053022A
:101B0A000A3003195202031C8B2D8D2D01308E2DA4
:101B1A000030D400D5015408DC005508DD00B02D92
:101B2A004E0886008701403FD000413FD10050084F
:101B3A008400510885000008D200D3015208F00041
:101B4A005308F1009931BF218C3171082000DD0062
:101B5A007008DC00B02D5C085D04031DB52DB62DA0
:101B6A00662DB92DB92DB92D20004E0886008701A2
:101B7A00403FD000413FD100500884005108850001
:101B8A000008D200D3015208F6005308F7009B312F
:101B9A00BB238C3176082000D4005408E00060088A
:101BAA000319D82DD92D1A2E4E0886008701403FD9
:101BBA00D000413FD100013050078400510803187A
:101BCA00510A85000008D200D3015208F6005308D2
:101BDA00F7009B31BB238C3176082000D4005408CF
:101BEA00E10061080319FA2DFB2D1A2E4E08860012
:101BFA008701403FD000413FD100023050078400A6
:101C0A0051080318510A85000008D200D30152086E
:101C1A00F6005308F7009B31BB238C31760820006D
:101C2A00D4005408E2001A2E1A2E4E0886008701A4
:101C3A00403FD000413FD100500884005108850040
:101C4A001200633A031D2A2E2B2E4E2E4E088600B2
:101C5A0087010130810741310318810A4F08860044
:101C6A008701010884008501023081070008D0003D
:101C7A005008E7006708D0005008AD0068089C319A
:101C8A0021248C3120002E08CF002D08CE00FF2FF2
:101C9A00FF2F66306006031D532E542E922E4E08D7
:101CAA0086008701403FD000413FD10050088400A0
:101CBA00510885000008D2005208E7004E08860045
:101CCA0087010130810741310318810A4F088600D4
:101CDA00870101088400850104308107003FE30081
:101CEA00013FE400023FE500033FE6006608C80042
:101CFA006508C7006408C6006308C5006708D00005
:101D0A005008C90068088031AA208C312000460892
:101D1A00CF004508CE00FF2FFF2F3730F000993053
:101D2A00F1000230F2000030F30060309D31DE2510
:101D3A008C3170087104031DA32EA42E3D2F2000A0
:101D4A004E0886008701403FD000413FD100013054
:101D5A005007840051080318510A85000008D20070
:101D6A005208E7004E0886008701403FD000413FF5
:101D7A00D10050088400510885000008BF3ED200F7
:101D8A00FF3003180030D300003053021A30031911
:101D9A005202031CD12ED32E0130D42E0030D4008F
:101DAA00D5015408DE005508DF00F62E4E088600DD
:101DBA008701403FD000413FD100500884005108BC
:101DCA0085000008D200D3015208F0005308F10040
:101DDA009931D8218C3171082000DF007008DE00AB
:101DEA00F62E5E085F040319FB2EFC2E0D2F4F08FA
:101DFA008600870101088400850104308107003FBD
:101E0A00E300013FE400023FE500033FE6001E2F26
:101E1A004F08860087010108840085010430810784
:101E2A00003FE300013FE400023FE500033FE60014
:101E3A001E2F4E08860087010230810741310318A0
:101E4A00810A6608C8006508C7006408C6006308F6
:101E5A00C5006708D0005008C90068088031AA2068
:101E6A008C3120004608CF004508CE00FF2FFF2FF7
:101E7A0020004E0886008701403FD000413FD10034
:101E8A0050088400510885001200783A03194E2F31
:101E9A004F2F612F4E0886008701403FD000413FF7
:101EAA00D10050088400510885001200583A031DD9
:101EBA005F2F602FA12F612F4E0886008701403FB8
:101ECA00D000413FD1005008840051088500000825
:101EDA00D2005208E7004E088600870101308107C8
:101EEA0041310318810A4F088600870101088400DE
:101EFA00850102308107003FD000013FD100500820
:101F0A00D6005108D700D801D9015908B00058089D
:101F1A00AF005708AE005608AD006708D000500859
:101F2A00B100680894311B248C3120002E08CF00A0
:101F3A002D08CE00FF2FFF2F4E0886008701403F55
:101F4A00D000413FD100500884005108850012009A
:101F5A00253A031DB12FB22FCC2F4E0886008701D8
:101F6A000130810741310318810A2530F20000301F
:101F7A00F3006808D0005008F4009C3191248C3199
:101F8A0001302000CE000030CF00FF2FFF2F4E0877
:101F9A00860087010130810741310318810ACE0189
:101FAA00CF01FF2FFF2F4E0886008701403FD00048
:101FBA00413FD10050088400510885000008D20032
:101FCA00D3015208F2005308F3006808D4005408F9
:101FDA00F4009C3191248C3120004E088600870140
:101FEA000130810741310318810A0130CE000030E7
:101FFA00CF00FF2F08002000A101F71F052806289F
:10200A000E28F609F709F60A0319F70AA101A10A27
:10201A000E28F91F112812281C28F809F909F80AAC
:10202A000319F90A0130FA007A08A1061C28A2014C
:10203A00A301760877040319232824285928A00124
:10204A00A00A31280130F635F70D890B282801300E
:10205A00FA007A08A0073128F71F342835282728DC
:10206A00372837280130A235A30D890B382877087D
:10207A007902031D422876087802031C452846285F
:10208A004C287608F8027708F93B22144C280130CC
:10209A00F736F60C890B4D280130A002031D56288D
:1020AA005728372859285928210803195D285E28F6
:1020BA006428A209A309A20A0319A30A6428230807
:1020CA00F7002208F600692808002200C400440824
:1020DA000319702871288528BF1F74287528852838
:1020EA003C09C6003D09C7003E09C8003F09C900AE
:1020FA00C60A0319C70A0319C80A0319C90A8D2887
:10210A003F08C9003E08C8003D08C7003C08C60091
:10211A003F083E043D043C04031D942895289F284B
:10212A000030BF000030BE000030BD000030BC00EF
:10213A001E291E299630C0004008C500B02801306B
:10214A00C0004008C5070130C936C80CC70CC60C08
:10215A00890BA928B028FE304905031DB528B628E1
:10216A00A428CB28CB280130C0004008C50701307D
:10217A00C6070030C73D0030C83D0030C93D0130B8
:10218A00C936C80CC70CC60C890BC528FF304905CF
:10219A00031DD028D128B828DD28DD280130C50242
:1021AA000130C635C70DC80DC90D890BD628DD28E3
:1021BA00C81BE028E128E828023045020318E6286F
:1021CA00E728D328E8284518EB28EC28F428FF301C
:1021DA00C605FF30C7057F30C805FF30C9050310A3
:1021EA00C50C4508C000C101C201C3011830C03581
:1021FA00C10DC20DC30D890BFC284008C604410855
:10220A00C7044208C8044308C904440803190E292C
:10221A000F291529BF1F122913291529C91715298D
:10222A004908BF004808BE004708BD004608BC0070
:10223A001E2908002000A701A801A001A1012A293E
:10224A000130F6070030F73D2A29A601A60A7608CA
:10225A008400770885001200203A031935293629A7
:10226A004C2976088400770885000008F73EF800B4
:10227A00FF3003180030F9000030790205300319E5
:10228A007802031C49294A294C29A6014C29260807
:10229A00F800F9017808A2007908A30068297608ED
:1022AA008400770885000008F800F9017808F00032
:1022BA007908F1009A31CE22913171082000A300E9
:1022CA007008A200682922082304031D6D296E29BB
:1022DA0025297A297A2901302000A0000030A1009E
:1022EA000130F6070030F73DB729760884007708F1
:1022FA0085000008F800F9017908003A03198629CF
:10230A00B72978082B3A03197529063A031970294F
:10231A00B729B72976088400770885000008D03ED7
:10232A00F800FF3003180030F900F809F909F80A33
:10233A000319F90A20002808F1002708F0000A30DA
:10234A00F2000030F3009A31AC229131780870071C
:10235A002000A7007908713DA8000130F607003077
:10236A00F73DB72976088400770885000008D03E33
:10237A00F800FF3003180030F900003079020A3003
:10238A0003197802031CCA29CC290130CD2900304F
:10239A00FA00FB017A082000A4007B08A500E929BD
:1023AA0076088400770885000008F800F9017808A3
:1023BA00F0007908F1009931BF21913171082000AC
:1023CA00A5007008A400E92924082504031DEE29A4
:1023DA00EF298F29F02920082104031DF529F62960
:1023EA00022A2709F8002809F900F80A0319F90A44
:1023FA007808F6007908F700082A2808F70027085D
:10240A00F600082A082A080022002C082000C0002A
:10241A0022002B082000BF0022002A082000BE004C
:10242A00220029082000BD003008C0002F08BF0084
:10243A002E08BE002D08BD003D08B1003E08B200BE
:10244A003F08B3004008B4001730B436B30CB20CDE
:10245A00B10C890B2A2AFF303105B500003032054C
:10246A00B6003508813EBB00FF30363DBC003C0853
:10247A00803AB10080303102031D452A17303B02F1
:10248A00031C482A492A4A2AF72A2000BC1B4E2A3A
:10249A004F2AAD2AFF30B100FF30B2007F30B300BF
:1024AA000030B4003B0A5D2AB437B30CB20CB10C4D
:1024BA00890B592A3408BA003308B9003208B8001F
:1024CA003108B7003D083705B1003E083805B200AB
:1024DA003F083905B30040083A05B400340833040C
:1024EA0032043104031D7A2A7B2A7C2AF72A3D0802
:1024FA00B1003E08B2003F08B3004008B4001F30E4
:10250A00B436B30CB20CB10C890B852A34083304E7
:10251A00320431040319922A932A9C2A3708BD07E8
:10252A003808BE3D3908BF3D3A08C03D9C2A3709E4
:10253A00B1003809B2003909B3003A09B4003108C8
:10254A00BD053208BE053308BF053408C005EE2AAA
:10255A003D08B1003E08B2003F08B3004008B4008D
:10256A001F30B436B30CB20CB10C890BB62A34083E
:10257A00330432043104031DC32AC42ACD2A00308D
:10258A00C0000030BF000030BE000030BD00EE2A9F
:10259A003D08B1003E08B2003F08B3004008B4004D
:1025AA000130B135B20DB30DB40D890BD62A3408FA
:1025BA003304320431040319E32AE42AEE2ABF3031
:1025CA00C0008030BF000030BE000030BD00EE2ADF
:1025DA00EE2A4008B0003F08AF003E08AE003D08B2
:1025EA00AD00F72A080088310020923133309A3141
:1025FA00482292311B302100DC009930DD001B306B
:10260A00DE000030DF009A312922923104302100A5
:10261A00DC009930DD009A31292292312100EE0145
:10262A0008306E02031C1A2B1B2B1D2B482B482B20
:10263A009B31652392312100E7006E08203E860017
:10264A0001308700670881003A30DC009930DD00EC
:10265A006E08203E8600013087000108E700E80185
:10266A006708DE006808DF009A31292292310130BA
:10267A002100E7006708EE0708306E02031C462BAC
:10268A00472B1D2B482BDE30DC009830DD009A31B9
:10269A002922923188310020923199316121923177
:1026AA0044309A3148229231A0300032890B5A2B99
:1026BA00883100209231993161219231BE309A31AC
:1026CA004822923111302100DC009930DD009A3124
:1026DA00292292312100EE0109306E02031C762B69
:1026EA00772B792BA42BA42B9B31652392312100C4
:1026FA00E7006E08203E86000130870067088100E7
:10270A003A30DC009930DD006E08203E8600013048
:10271A0087000108E700E8016708DE006808DF00B3
:10272A009A312922923101302100E7006708EE0729
:10273A0009306E02031CA22BA32B792BA42BDE30AB
:10274A00DC009830DD009A312922923122002108DA
:10275A00F8390319B12BB22BEA2BFF302100E7001D
:10276A0067082200A00601302100E700670822005E
:10277A00A007FF302100E70067082200A1061030F9
:10278A00F6000030F70020092100E70022002109A5
:10279A002100E800E70A0319E80A6708F000680858
:1027AA00F1000A30F2000030F3009A31AC22923183
:1027BA007108F9007008F80090310020923177080A
:1027CA002100ED007608EC00152C1030F6000030E0
:1027DA00F700220020082100E700E8012200210872
:1027EA002100E900EA016908EA00E90167086904C9
:1027FA00F00068086A04F1000A30F2000030F300C1
:10280A009A31AC2292317108F9007008F8009031BF
:10281A000020923177082100ED007608EC00152C93
:10282A006D08E6006C08E5001A2C08002000BE00BE
:10283A002200B91B212C222C262CFD30BA05FF3090
:10284A00BB053908803A2000B20080303202031DED
:10285A00312C0130220038020318342C352C3B2C41
:10286A0001302000BC000030BD00432C2200390892
:10287A002000BD00220038082000BC0022003708D2
:10288A002000C000220036082000BF0022003A1EA5
:10289A004F2C502C552CFE302000BF07FF30C03D76
:1028AA0020003008C4002F08C3002E08C2002D08DB
:1028BA00C1004F30C5000030C6004508A03E860062
:1028CA00013087008101272DFF302000C507FF3026
:1028DA00C63D0F304105C70000304205C800480810
:1028EA00803AB20080303202031D7D2C0A30470242
:1028FA00031C802C812C892C20004708573EC700D6
:10290A000030483DC800912C20004708303EC700DF
:10291A000030483DC800912C3108BF3EB200FF305C
:10292A0003180030B300003033021A3003193202A0
:10293A00031CA02CA22C0130A32C0030B400B5013A
:10294A003408B8003508B900BA2C3108B200B3010E
:10295A003208F0003308F1009931D8219431710816
:10296A002000B9007008B800BA2C380839040319D5
:10297A00BF2CC02CFE2C20304704B2000030480483
:10298A00B30032089F3EB400FF30333DB50000303B
:10299A0035021A3003193402031CD42CD62C013008
:1029AA00D72C0030B600B7013608BA003708BB008A
:1029BA00EB2C4808F1004708F0009A310A229431BA
:1029CA0071082000BB007008BA00EB2C3A083B04DF
:1029DA000319F02CF12CFE2C4808F7004708F600E2
:1029EA009B31EE23943177082000C8007608C7008F
:1029FA00FE2C4708B2004508A03E86000130870039
:102A0A0032088100FF30BC07FF30BD3DFF30BF07F1
:102A1A00FF30C03D4108B2004208B3004308B40089
:102A2A004408B5000430B536B40CB30CB20C890BAB
:102A3A00182D3508C4003408C3003308C200320810
:102A4A00C100272D4608803AB20080303202031DA9
:102A5A00302D02304502031C332D342D5F2D20000A
:102A6A004408430442044104031D3C2D3D2D692CB6
:102A7A003D08803AB20080303202031D462D0130F3
:102A8A003C020318492D4A2D692C20004008803A3F
:102A9A00B20080303202031D542D01303F02031C64
:102AAA00572D582D5F2D2200BA185C2D5D2D692CEB
:102ABA005F2D5F2D22003A1E632D642D802DFF307D
:102ACA002000C507FF30C63D3108B2004508A03EC8
:102ADA0086000130870032088100FF30C507FF30C9
:102AEA00C63D3030B2004508A03E8600013087005E
:102AFA0032088100802D20004508A03EB20032082D
:102B0A00A4004008A6003F08A5003E089D312525DF
:102B1A00943120002508AE002408AD00942D080049
:102B2A00200023088039F9007908A8002335F90024
:102B3A007908AE00A21FA22DA32DA52D2E14A52D16
:102B4A002E080319A92DAA2DBA2D2E0A031DAE2D62
:102B5A00AF2DB82D0030A3000030A2000030A10034
:102B6A000030A000B82DA217C32D0030A3000030FA
:102B7A00A2000030A1000030A000C32D2708803930
:102B8A00F9007908A8062735F9007908AD00A61FCB
:102B9A00CF2DD02DD22D2D14D22D2D080319D62D9F
:102BAA00D72DE72D2D0A031DDB2DDC2DE52D003059
:102BBA00A7000030A6000030A5000030A400E52DD3
:102BCA00A617F02D0030A7000030A6000030A5009F
:102BDA000030A400F02D2D080319F42DF52DFB2D3E
:102BEA002E08031DF92DFA2D052EFB2D0030A3000A
:102BFA000030A2000030A1000030A000FF2FFF2FFC
:102C0A002008F9007908F00026089B311523953130
:102C1A0071082000B4007008B3003308F900FA0103
:102C2A00FB01FC017C08AC007B08AB007A08AA0017
:102C3A007908A9003408F900FA01FB01FC017C08B3
:102C4A00B2007B08B1007A08B0007908AF00210809
:102C5A00F9007908F00025089B3115239531710890
:102C6A002000B4007008B3003308F900FA01FB0130
:102C7A00FC017908A9077A08AA3D7B08AB3D7C08C4
:102C8A00AC3D3408F900FA01FB01FC017908AF07F1
:102C9A007A08B03D7B08B13D7C08B23D2208F900B4
:102CAA007908F00024089B3115239531710820001A
:102CBA00B4007008B3003308F900FA01FB01FC0103
:102CCA007908A9077A08AA3D7B08AB3D7C08AC3D88
:102CDA003408F900FA01FB01FC017908AF077A0808
:102CEA00B03D7B08B13D7C08B23D0830A935AA0D3C
:102CFA00AB0DAC0D890B7B2E2108F9007908F00089
:102D0A0024089B311523953171082000B4007008FE
:102D1A00B3003308A9073408AA3D0030AB3DAC3DE7
:102D2A002008F9007908F00025089B311523953110
:102D3A0071082000B4007008B3003308A9073408EA
:102D4A00AA3D0030AB3DAC3D0830A935AA0DAB0D0C
:102D5A00AC0D890BAA2E2008F9007908F000240886
:102D6A009B311523953171082000B4007008B30017
:102D7A003308A9073408AA3D0030AB3DAC3D210811
:102D8A00F9007908F00026089B311523953171085E
:102D9A002000B4007008B3003308AF073408B03D10
:102DAA000030B13DB23D2208F9007908F00025084B
:102DBA009B311523953171082000B4007008B300C7
:102DCA003308AF073408B03D0030B13DB23D2208A8
:102DDA00F9007908F00026089B311523953171080E
:102DEA002000B4007008B3003308F9003408FA0070
:102DFA00FB01FC010830F935FA0DFB0DFC0D890BBE
:102E0A00002F7908AF077A08B03D7B08B13D7C08EE
:102E1A00B23D2908F9002A08FA002B08FB002C0801
:102E2A00FC001830FC36FB0CFA0CF90C890B172F36
:102E3A007908AF077A08B03D7B08B13D7C08B23DFE
:102E4A000830A935AA0DAB0DAC0D890B262F2E081B
:102E5A002D07F900FA01FA0D7908823EB300FF3016
:102E6A007A3DB400512F0130AF35B00DB10DB20D1E
:102E7A00890B392FAC1F422F432F452F2F14452F73
:102E8A000130A935AA0DAB0DAC0D890B462FFF30C9
:102E9A00B307FF30B43D512FB11F542F552F382F90
:102EAA00562FAD01AC1F5A2F5B2F7B2FFF30290500
:102EBA00F900FF302A05FA00FF302B05FB007F30AE
:102ECA002C05FC007C087B047A04790403196E2F14
:102EDA006F2F722FAD01AD0A7B2F2F1C752F762F06
:102EEA007B2FAD01AD0A7B2F7B2F7B2F2D0803197A
:102EFA007F2F802FAA2F0130AF070030B03D00305E
:102F0A00B13D0030B23D321C8B2F8C2FAA2F2F08D7
:102F1A00F9003008FA003108FB003208FC000130E1
:102F2A00FD00FC37FB0CFA0CF90CFD0B962F7C0804
:102F3A00B2007B08B1007A08B0007908AF0001300E
:102F4A00B3070030B43DAA2FAA2F3408803AF900FB
:102F5A0080307902031DB32FFF303302031CB62FD2
:102F6A00B72FC12F7F302000B2008030B10000306F
:102F7A00B0000030AF00F22F20003408803AF90088
:102F8A0080307902031DCB2F013033020318CE2F74
:102F9A00CF2FDA2F00302000B2000030B10000300D
:102FAA00B0000030AF00A801F22F20003308F9006A
:102FBA007908AE00FF30AF05FF30B0057F30B105AC
:102FCA000030B2052E1CEA2FEB2FED2FB117ED2F93
:102FDA002E36F9007908B200F22F2808F90079088C
:102FEA00B2043208A3003108A2003008A1002F0859
:102FFA00A000FF2F08004434653472342034613451
:10300A006E34673465347334633468346C346F34C3
:10301A007334733465346E3465342034543465340F
:10302A006D34703465347234613474347534723486
:10303A00733465346E3473346F3472340A340D3435
:10304A007734693472346434203461346C346C34C7
:10305A006534203435342034533465346B34753454
:10306A006E34643465346E342034613462346734C7
:10307A006534663472346134673474342034753498
:10308A006E3464340D340A34673469346234743407
:10309A00203464346134733420344D3465347334E9
:1030AA007334653472346734653462346E34693427
:1030BA0073342034613475346634203464346534AE
:1030CA00723420344B346F346E3473346F346C344E
:1030DA0065342034623465346B3461346E346E3452
:1030EA0074342E340D340A34003423342334233414
:1030FA00233423342334233423342334233423340E
:10310A0023342334233423342334233423342334FD
:10311A0023342334233423342334233423342334ED
:10312A0023342334233423342334233423342334DD
:10313A0023342334233423342334233423342334CD
:10314A0023342334233423342334233423340D34D3
:10315A000A340034443469346534203461346B34BD
:10316A007434753465346C346C34653420345434B6
:10317A0065346D3470346534723461347434753442
:10318A0072342034693473347434203425342B3443
:10319A002E34313466342034473472346134643422
:1031AA002034433465346C3473346934753473347D
:1031BA002E340A340D340034573469346C346C3488
:1031CA006B346F346D346D3465346E3420347A3434
:1031DA0075346D34203442346F346134723464345B
:1031EA00203449346E34743465347234663461344C
:1031FA00633465342E340D340A340A3400345434BA
:10320A00653469346C346E34653468346D346534CD
:10321A0072343A342034003441346E34743477349E
:10322A006F34723474343A342034003425346334BD
:10323A005B3437343B3431344834003449344E3407
:10324A00463400344E3441344E34003469346E34DA
:10325A00663400346E3461346E3400342534633499
:10326A00633400346C3466340034253478340034E2
:1032BA001630210097000800CC309A314822993103
:1032CA000800F100710899318421993108006400DD
:1032DA0080010131890B6D2900346A30210099007F
:1032EA009801220096010800083023009F009030C0
:1032FA009D0024309E0033309B009C010800F000A2
:10330A0086292000111E8A298B2986298C29700872
:10331A0023009A0008009A318A2299319931722140
:10332A00993199315D219931993179219931080081
:10333A0073087204710470040319A429A529A82921
:10334A008030F306A829A9290800F00022008C1170
:10335A0021008C1170080319B329B429B829000077
:10336A0021008C15B8292130890BB92900002100C8
:10337A008C1508007008D03EF200FF30713DF30052
:10338A00003073020A3003197202031CCD29CF29B7
:10339A000130D0290030F400F5017408F0007508F6
:1033AA00F100D72908007008BF3EF200FF30713DD6
:1033BA00F300003073021A3003197202031CE62963
:1033CA00E8290130E9290030F400F5017408F00019
:1033DA007508F100F029080070089F3EF200FF30DE
:1033EA00713DF300003073021A3003197202031C94
:1033FA00FF29012A0130022A0030F400F50174087D
:10340A00F0007508F100092A080020307004F20063
:10341A0000307104F30072089F3EF400FF30733DE0
:10342A00F500003075021A3003197402031C1E2AB3
:10343A00202A0130212A0030F600F7017608F00030
:10344A007708F100282A0800DE302000EE006E0816
:10345A002100E4005D082000EA0021005C08200049
:10346A00E900E430EE006E08EB0000309C3157248E
:10347A009A3120006A082100E3002000690821002F
:10348A00E200472A0800F200F401F40AF3010830C6
:10349A007302031C512A522A542A682A682A72087B
:1034AA0074059931AA219A317435F1007108F40032
:1034BA000130F1007108F30708307302031C662A11
:1034CA00672A542A682A080080302000B8063C0877
:1034DA00F3003B08F2003A08F1003908F000380816
:1034EA00F7003708F6003608F5003508F400893188
:1034FA00F7219A3173082000B8007208B7007108E2
:10350A00B6007008B500892A0800220090018F01D0
:10351A008C018D018E010F3021009000FF308C004C
:10352A00FF308D00BF308E00FF308F00FF30230048
:10353A008F003F308D000730900037308C00240018
:10354A0090018D012100951722009D010800F401C8
:10355A00F501AF2A701CB22AB32AB72A7208F407F7
:10356A007308F53D0130F235F30D890BB82A0130A5
:10357A00F136F00C890BBD2A70087104031DC62AA6
:10358A00C72AAF2AC82A7508F1007408F000CD2AA4
:10359A000800F401F40A2030700671040319D62ACF
:1035AA00D72AE82A7008F73EF200FF30713DF3008F
:1035BA0000307302053003197202031CE52AE62A59
:1035CA00E82AF401E82A7408F200F3017208F0000C
:1035DA007308F100F02A0800F7007108F500700876
:1035EA00F4007708F2007208F600FC2AFC2A760832
:1035FA00860001308700F60A7508F3007408F200A5
:10360A00F40A0319F50A7208840073088500000891
:10361A00C03F8908031D122B132BFC2A142B080008
:10362A00F800F401F5017008F200F3017208F600DF
:10363A007308F700202B781C232B242B282B7608C1
:10364A00F4077708F53D0130F635F70D890B292B7C
:10365A000310F80C7808031D332B342B202B352B41
:10366A007508F1007408F0003A2B0800F700770893
:10367A00F2007208F600462B0130F2007208F707D2
:10368A00462B77088600013087000108031D4E2B60
:10369A004F2B412B502B7608F2000130F300F20930
:1036AA00F309F20A0319F30A7708F4000130F50066
:1036BA0072087407F0007308753DF100642B080066
:1036CA00F301F40108307402031C6C2B6D2B6F2B71
:1036DA008D2B8D2B803105209B31003A0319762BD7
:1036EA00772B822B0130F100740A7C2BF135890B80
:1036FA007B2B7108F2007208F3040130F1007108A3
:10370A00F40708307402031C8B2B8C2B6F2B8D2B28
:10371A0073088F2B08002000A300A101A201A92B86
:10372A002008FB00FC017B08F2007C08F3007A0801
:10373A00FD007D08F4009C3191249B31013020006A
:10374A00A1070030A23DA92B21082307FB007B0813
:10375A008600013087000108FC007C08A0002008D0
:10376A00031DB82BB92B952BBA2B08007608BF3E40
:10377A00F800FF30773DF900003079021A3003195A
:10378A007802031CC92BCB2B0130CC2B0030FA005A
:10379A00FB017A08FC007B08FD00DF2B7708F100AB
:1037AA007608F0009931D8219B317108FD00700824
:1037BA00FC00DF2B7C087D040319E42BE52BED2BA1
:1037CA0020307604F60000307704F700ED2BED2B5D
:1037DA00080076089F3EF800FF30773DF900003078
:1037EA0079021A3003197802031CFC2BFE2B0130D4
:1037FA00FF2B0030FA00FB017A08FC007B08FD0071
:10380A00122C7708F1007608F0009931F1219B31EA
:10381A007108FD007008FC00122C7C087D04031955
:10382A00172C182C202C5F307605F600003077050F
:10383A00F700202C202C08002000B20022003608B5
:10384A003704031D292C2A2C322C37082000B100FA
:10385A00220036082000B0003D2C22003608FF3E28
:10386A002000B000FF302200373D2000B1003D2C7F
:10387A002D08AF002F082300A000A101A0302000CE
:10388A00AF002F08A4003108A6003008A5003208AE
:10389A009D3125259C3120002508AE002408AD0065
:1038AA00562C08002100D90020006A082100DB00FC
:1038BA00200069082100DA002200B401B5017C2C3D
:1038CA00DA302000EC006C08CE006B08ED006D08C1
:1038DA00CF00210059088C3170249C3120004E08F9
:1038EA002200B40720004F082200B53D7C2C21009D
:1038FA005A0884005B0885001200031D852C862C5B
:10390A00652C872C220035082000EA0022003408A2
:10391A002000E900902C080074080319952C962CB5
:10392A009C2C7408031D9A2C9B2CA12C9C2C72088D
:10393A00993166219C31D42C7408033E8600870194
:10394A00160001040319AA2CAB2CC92C7408033ED7
:10395A0086008701403FF500413FF600740A860061
:10396A008701403FF700413FF8007808803AF900A4
:10397A007608803A7902031DC42C75087702031869
:10398A00C72CC82CD42CC92C740A86008701013094
:10399A00810741310318810AD42CD42CD42C080075
:1039AA0000307005F80000307105F90080307205AA
:1039BA00FA007F307305FB007B087A0479047804E7
:1039CA00031DE82CE92CF12C0030F3000030F20042
:1039DA000030F1000030F00000307405F8000030CB
:1039EA007505F90080307605FA007F307705FB000F
:1039FA007B087A0479047804031D042D052D0D2D06
:103A0A000030F7000030F6000030F5000030F40016
:103A1A0077087306031D1B2D76087206031D1B2DDE
:103A2A0075087106031D1B2D7408700603191E2DD7
:103A3A001F2D212D0310242D0314242D242D0800BD
:103A4A002000AC0022003A1C2B2D2C2D362D2000F4
:103A5A002C08A7002708FA0024089B3190239D31DF
:103A6A00362D2000A61B3A2D3B2D402D2608AB00F3
:103A7A002508AA00422DAA01AB01A801A901572DC8
:103A8A002030F2000030F30020002C08A70027089D
:103A9A00F4009C3191249D3101302000A8070030A8
:103AAA00A93D572D2908803AA7002B08803A2702FA
:103ABA00031D612D2A082802031C642D652D452D3E
:103ACA0022003A18692D6A2D732D20002C08A700B0
:103ADA002708FA0024089B3190239D3120002408EE
:103AEA009B313B239D3120002A087007A4002B0834
:103AFA00713DA500802D0800F601F31F852D862D46
:103B0A008E2DF209F309F20A0319F30AF601F60AED
:103B1A008E2DF11F912D922D982DF009F109F00AA1
:103B2A000319F10A982D7008710403199D2D9E2D11
:103B3A00CD2DF501F50AAB2D0130F035F10D890BCC
:103B4A00A22D0130F4007408F507AB2DF11FAE2D3C
:103B5A00AF2DA12DB12DB12D71087302031DB72D03
:103B6A0070087202031CBA2DBB2DC02D7008F20218
:103B7A007108F33BC02D0130F136F00C890BC12DD1
:103B8A000130F502031DCA2DCB2DB12DCD2DCD2D22
:103B9A0076080319D12DD22DD82DF209F309F20A8C
:103BAA000319F30AD82D7308F1007208F000DD2D0D
:103BBA000800F6007608F4007408F9007108F800A5
:103BCA007008F7000130F2020030F33B720A031D5D
:103BDA00F22D730A031DF22DF32D052EF001F101CA
:103BEA00442E442E052E0130F4007408F9070130E2
:103BFA00F7070030F83D0130F2020030F33B052EA2
:103C0A00790886008701010803190C2E0D2E2D2E26
:103C1A00770884007808850012000319152E162EDD
:103C2A002D2E7208730403191B2E1C2E2D2E7708B5
:103C3A008400780885000008F40079088600870166
:103C4A000108740603192A2E2B2EF82D2D2E2D2E3F
:103C5A0077088400780885000008F400F501F40963
:103C6A00F509F40A0319F50A79088600870101089B
:103C7A007407F00075080318750AF100442E08004D
:103C8A00220030082000A50022002F082000A400EE
:103C9A0022002E082000A30022002D082000A200E6
:103CAA007308A5007208A4007108A3007008A20096
:103CBA002208F4002308F5002408F6002508F70076
:103CCA001730F736F60CF50CF40C890B662EFF301C
:103CDA007405A00000307505A10020082104031D09
:103CEA00772E782E9B2E2208F4002308F50024084C
:103CFA00F6002508F7000130F435F50DF60DF70D3D
:103D0A00890B812E7708760475047404031D8E2EA0
:103D1A008F2E942E0230F0000030F100C72E0330AF
:103D2A00F0000030F100C72EC72EC72E200A21044A
:103D3A00031DA02EA12EC22E2208F4002308F5008E
:103D4A002408F6002508F7000930F435F50DF60DBC
:103D5A00F70D890BAA2E77087604750474040319E3
:103D6A00B72EB92E0130BA2E0030F800F9017808C2
:103D7A00F0007908F100C72EC72E0430F000003099
:103D8A00F100C72E0800993190219E31333021006D
:103D9A00DC009930DD001B30DE000030DF009A3194
:103DAA0029229E31E1302100DC009830DD009A3171
:103DBA0029229E3100302100DC009830DD009A3142
:103DCA0029229E317A302100DC009830DD009A31B8
:103DDA0029229E31F02E9231F8229E312100650867
:103DEA002200BC00210066082200BD00890D893B23
:103DFA008909BE00BF00013090316A209E3122003D
:103E0A003F08D3003E08D2003D08D1003C08D0004C
:103E1A004130F3002030F2000030F1000030F000B1
:103E2A005308F7005208F6005108F5005008F4004C
:103E3A00883118209E3173082200CF007208CE0004
:103E4A007108CD007008CC00AF302100DC0098303A
:103E5A00DD0022004F082100E10022004E08210067
:103E6A00E00022004D082100DF0022004C0821005A
:103E7A00DE009A3129229E3110302200CB003930DF
:103E8A00CA000D30890B472FCA0B472FCB0B472F80
:103E9A000032F02EF02E8031022800302000350545
:103EAA00BD0000303605BE0080303705BF007F30C8
:103EBA003805C00040083F043E043D04031D662F38
:103ECA00672F6F2F0030B8000030B7000030B600FF
:103EDA000030B50000303905BD0000303A05BE009B
:103EEA0080303B05BF007F303C05C00040083F04DE
:103EFA003E043D04031D822F832F8C2F0030BC000B
:103F0A000030BB000030BA000030B9008C2FB81F57
:103F1A008F2F902FB82F0030BD000030BE00003028
:103F2A00BF008030C0003509C1003609C200370918
:103F3A00C3003809C400C10A0319C20A0319C30A13
:103F4A000319C40A4108BD074208BE3D4308BF3DE4
:103F5A004408C03D4008B8003F08B7003E08B60014
:103F6A003D08B500B82FBC1FBB2FBC2FE42F003073
:103F7A00BD000030BE000030BF008030C0003909EB
:103F8A00C1003A09C2003B09C3003C09C400C10A86
:103F9A000319C20A0319C30A0319C40A4108BD074F
:103FAA004208BE3D4308BF3D4408C03D4008BC002E
:103FBA003F08BB003E08BA003D08B900E42F803034
:103FCA00B8068030BC063C083802031DF62F3B08B1
:103FDA003702031DF62F3A083602031DF62F390859
:103FEA0035020318F92FFA2FFC2F0310FF2F0314A1
:063FFA00FF2FFF2F08005D
:020000040001F9
:04000E00E4F9FFDE34
:00000001FF
