:020000040000FA
:10000000803102288731E82F083023009F0090308C
:100010009D0024309E0067309B009C010800F40086
:1000200074080F39F1007108F2007408F039F1001A
:100030007108F3001B2822000C141E287308F1001D
:100040000430F136890B212871088F31492780311E
:10005000292822008C172C281A30890B2D280032D1
:10006000312822008C13342872088F3149278031BF
:10007000392822008C173C281A30890B3D28003281
:10008000412822008C1344280800F601F31F492858
:100090004A285228F209F309F20A0319F30AF60171
:1000A000F60A5228F11F552856285C28F009F10954
:1000B000F00A0319F10A5C28700871040319612819
:1000C00062289128F501F50A6F280130F035F10D0D
:1000D000890B66280130F4007408F5076F28F11FBA
:1000E0007228732865287528752871087302031D06
:1000F0007B2870087202031C7E287F2884287008E1
:10010000F2027108F33B84280130F136F00C890BC0
:1001100085280130F502031D8E288F287528912827
:10012000912876080319952896289C28F209F30946
:10013000F20A0319F30A9C287308F1007208F00010
:10014000A1280800F601F11FA628A728AF28F0096A
:10015000F109F00A0319F10AF601F60AAF28F31FB4
:10016000B228B328BD28F209F309F20A0319F30AE9
:100170000130F4007408F606BD28F701F801700894
:1001800071040319C428C528FA28F501F50AD228F4
:100190000130F035F10D890BC9280130F4007408E5
:1001A000F507D228F11FD528D628C828D828D8285E
:1001B0000130F735F80D890BD92871087302031D3A
:1001C000E32870087202031CE628E728ED2870086F
:1001D000F2027108F33B7714ED280130F136F00C90
:1001E000890BEE280130F502031DF728F828D828DE
:1001F000FA28FA2876080319FE28FF280529F709A6
:10020000F809F70A0319F80A05297808F1007708B0
:10021000F0000A2908002000A1006308A200640879
:10022000A3006508A400A50103302502031C1929B9
:100230001A291C29582958290A30F0000030F100E9
:100240002108F900FA017908F2007A08F3008031F8
:10025000452081317008FB007B082000A0000A3097
:10026000F0000030F1002108F900FA017908F200ED
:100270007A08F3008031A22081317008FB007B08EE
:100280002000A1002008303EF9002503FF3A023E7D
:10029000223E86008701790881000130F900790843
:1002A000A50703302502031C562957291C29582964
:1002B00030302206031D5D295E296E292030F900A9
:1002C0007908A20030302306031D672968296E29AA
:1002D0002030F9007908A3006E296E29A6010330A9
:1002E0002602031C74297529772994299429260844
:1002F000223E8600870101088E313C268131200094
:100300002608223E86008701010880310F208131B6
:100310000130F90079082000A60703302602031CEB
:100320009229932977299429080020005408D8009D
:100330005508D9005608DA005708DB0003105A0D9B
:100340005B0DDC005C08DE005E08031DA829A929FE
:10035000B3290030D7000030D6000030D50000307F
:10036000D400292A292A5408D8005508D90056084B
:10037000DA005708DB001F30DB36DA0CD90CD80C5A
:10038000890BBC295808DC005C08DD00D617FF305B
:10039000D405FF30D505FF30D6050030D70596309F
:1003A000DE02DE1FD429D529F8295E08803A973E5F
:1003B0000318DB29DC29E7290030D7000030D600FC
:1003C0000030D5000030D400292A292AE72901303D
:1003D000D736D60CD50CD40C890BE8290130D800BF
:1003E0005808DE07031DF529F629E729192A192AD5
:1003F00020305E02031CFD29FE29122A0030D7009E
:100400000030D6000030D5000030D400292A292A37
:10041000122A0130D435D50DD60DD70D890B0A2AF5
:100420000130DE025E08031D162A172A092A192A3E
:10043000192A5D0803191D2A1E2A292AD409D5095B
:10044000D609D709D40A0319D50A0319D60A0319FC
:10045000D70A0800F800780803192F2A302A442AFE
:10046000F31F332A342A442A7009FA007109FB0069
:100470007209FC007309FD00FA0A0319FB0A03194B
:10048000FC0A0319FD0A4C2A7308FD007208FC00DF
:100490007108FB007008FA0073087204710470049C
:1004A000031D532A542A5E2A0030F3000030F20064
:1004B0000030F1000030F000DD2ADD2A9630F40033
:1004C0007408F9006F2A0130F4007408F90701304C
:1004D000FD36FC0CFB0CFA0C890B682A6F2AFE30E7
:1004E0007D05031D742A752A632A8A2A8A2A013007
:1004F000F4007408F9070130FA070030FB3D0030C2
:10050000FC3D0030FD3D0130FD36FC0CFB0CFA0CCF
:10051000890B842AFF307D05031D8F2A902A772AB4
:100520009C2A9C2A0130F9020130FA35FB0DFC0DA2
:10053000FD0D890B952A9C2AFC1B9F2AA02AA72A1D
:10054000023079020318A52AA62A922AA72A791826
:10055000AA2AAB2AB32AFF30FA05FF30FB057F3009
:10056000FC05FF30FD050310F90C7908F400F501D6
:10057000F601F7011830F435F50DF60DF70D890B7E
:10058000BB2A7408FA047508FB047608FC04770893
:10059000FD0478080319CD2ACE2AD42AF31FD12AC4
:1005A000D22AD42AFD17D42A7D08F3007C08F20051
:1005B0007B08F1007A08F000DD2A08008E316526FC
:1005C0008231FF30F0000330F1008E317B26823122
:1005D000E92A22000E14ED2AED2A8E108F3175279C
:1005E00082318E3133268231F301F30A01308F31AB
:1005F000B82782311330F5009030F6008E31E226B4
:100600008231F301F30A02308F31B82782310D3085
:10061000F5009030F6008E31E22682312630F1006E
:100620009030F2008E31AB2682310030F1009030F4
:10063000F2008E31AB2682311D2B05308E31C4265F
:10064000823171082000E7007008E6006708F100B9
:100650006608F0008E317B26823120006608F000AB
:100660006708F100F201F301003082312A22823161
:1006700073082000A7007208A6007108A500700882
:10068000A4004430A3007F30A200C030A10000309D
:10069000A00083319E23823120002308C10022085C
:1006A000C0002108BF002008BE004230BD00C83095
:1006B000BC000030BB000030BA0085317D2582319E
:1006C00020003D08D7003C08D6003B08D5003A087A
:1006D000D40081319521823120005408DF005F0869
:1006E000E8000630DF005F08F30002308F31B827E2
:1006F00082311F30F1009030F2008E31AB26823112
:100700002D30F1009030F2008E31AB268231200086
:10071000680881310B2182313130F1009030F200D4
:100720008E31AB2682313130F5009030F6008E31BB
:10073000E22682311D2B1D2B803102282000270844
:100740008039A8002808B1002735A8002808B8007B
:10075000A61FAB2BAC2BAE2B3814AE2B38080319CD
:10076000B22BB32BC42B380A031DB72BB82BC12BCC
:100770000030A7000030A6000030A5000030A40023
:10078000C12BA617A701CD2B0030A7000030A60073
:100790000030A5000030A400CD2B23088039A8002C
:1007A0002808B1062335A8002808B900A21FD92BB4
:1007B000DA2BDC2B3914DC2B39080319E02BE12B65
:1007C000F22B390A031DE52BE62BEF2B0030A3009B
:1007D0000030A2000030A1000030A000EF2BA217D3
:1007E000A301FA2B0030A3000030A2000030A100CA
:1007F0000030A0002308220421042004031D012C42
:10080000022C1C2C0030A7000030A6000030A500F0
:100810000030A4008030A6047F30A7043108A8006F
:100820002808A7042708A3002608A2002508A1007D
:100830002408A0007C2D7C2D3808031D202C212CA1
:10084000332C0030A7000030A6000030A500003097
:10085000A4002708A3002608A2002508A100240858
:10086000A0007C2D7C2D3908A800A901A809A909A0
:10087000A80A0319A90A38082807AA002908031892
:10088000290AAB002A087F3EB20000302B3DB3009E
:100890002708B0002608AF002508AE002408AD00E8
:1008A0000030A7000030A6000030A5000030A400F2
:1008B0000030B7000030B6000030B5000030B400A2
:1008C000B901A42C39080319662C672C832C01303C
:1008D000AD35AE0DAF0DB00D890B682C0130A435D0
:1008E000A50DA60DA70D890B6F2CB71F782C792CA1
:1008F0007B2C24147B2C0130B435B50DB60DB70D0F
:10090000890B7C2C832C23083002031D912C220898
:100910002F02031D912C21082E02031D912C20086B
:100920002D02031C942C952C9F2C37172008AD0208
:100930002108AE3B2208AF3B2308B03B9F2C01307F
:10094000A8002808B907A42C1A303902031CA92CC6
:10095000AA2C622CAB2C30082F042E042D04031972
:10096000B22CB32CCF2C3414CF2CCF2C0130A43587
:10097000A50DA60DA70D890BB72CB71FC02CC12C38
:10098000C32C2414C32C0130B435B50DB60DB70DEE
:10099000890BC42CFF30B207FF30B33DCF2CA61F0C
:1009A000D22CD32CB62CD42CB901B71FD82CD92CCF
:1009B000F92CFF303405A800FF303505A900FF30C1
:1009C0003605AA007F303705AB002B082A0429041E
:1009D00028040319EC2CED2CF02CB901B90AF92CE0
:1009E000241CF32CF42CF92CB901B90AF92CF92C9C
:1009F000F92C39080319FD2CFE2C282D0130A407F1
:100A00000030A53D0030A63D0030A73D271C092D34
:100A10000A2D282D2408A8002508A9002608AA00C8
:100A20002708AB000130AC00AB37AA0CA90CA80C0E
:100A3000AC0B142D2B08A7002A08A6002908A50036
:100A40002808A4000130B2070030B33D282D282D1E
:100A50003308803AA80080302802031D312DFF3072
:100A60003202031C342D352D422DFF302000B20000
:100A70000030B3000030A7000030A6000030A50011
:100A80000030A40020003308803AA80080302802FB
:100A9000031D4C2D0130320203184F2D502D5C2DBB
:100AA0002000B201B3010030A7000030A6000030E2
:100AB000A5000030A400B10120003208A8002808D9
:100AC000B800381C642D652D672DA6176B2D7F305F
:100AD000A8002808A6053836A8002808A70031086D
:100AE000A8002808A7042708A3002608A2002508B4
:100AF000A1002408A0007C2D080020003D088039BA
:100B0000C2004208C7003D35C2004208CD00BC1FEC
:100B10008A2D8B2D8D2D4D148D2D4D080319912D62
:100B2000922DA22D4D0A031D962D972DA02D00303C
:100B3000BD000030BC000030BB000030BA00A02D6A
:100B4000BC17AB2D0030BD000030BC000030BB0036
:100B50000030BA00AB2D41088039C2004208C706F8
:100B60004135C2004208CC00C01FB72DB82DBA2DA8
:100B70004C14BA2D4C080319BE2DBF2DCF2D4C0A95
:100B8000031DC32DC42DCD2D0030C1000030C00089
:100B90000030BF000030BE00CD2DC017D82D003072
:100BA000C1000030C0000030BF000030BE00D82DB2
:100BB0004C080319DC2DDD2DE32D4D08031DE12D1F
:100BC000E22DED2DE32D0030BD000030BC000030E3
:100BD000BB000030BA00E72FE72F3A08C2004208F6
:100BE000F00040088F312327853171082000D300A1
:100BF0007008D2005208C200C301C401C5014508F3
:100C0000CB004408CA004308C9004208C800530882
:100C1000C200C301C401C5014508D1004408D00089
:100C20004308CF004208CE003B08C2004208F00053
:100C30003F088F312327853171082000D3007008C9
:100C4000D2005208C200C301C401C5014208C8074E
:100C50004308C93D4408CA3D4508CB3D5308C2007E
:100C6000C301C401C5014208CE074308CF3D440873
:100C7000D03D4508D13D3C08C2004208F0003E0886
:100C80008F312327853171082000D3007008D200EE
:100C90005208C200C301C401C5014208C807430885
:100CA000C93D4408CA3D4508CB3D5308C200C301B5
:100CB000C401C5014208CE074308CF3D4408D03DDA
:100CC0004508D13D0830C835C90DCA0DCB0D890B7B
:100CD000632E3B08C2004208F0003E088F312327F4
:100CE000853171082000D3007008D2005208C8076F
:100CF0005308C93D0030CA3DCB3D3A08C200420806
:100D0000F0003F088F312327853171082000D30080
:100D10007008D2005208C8075308C93D0030CA3DC8
:100D2000CB3D0830C835C90DCA0DCB0D890B922EAD
:100D30003A08C2004208F0003E088F31232785316F
:100D400071082000D3007008D2005208C807530869
:100D5000C93D0030CA3DCB3D3B08C2004208F0000F
:100D600040088F312327853171082000D300700897
:100D7000D2005208CE075308CF3D0030D03DD13DC0
:100D80003C08C2004208F0003F088F31232785311C
:100D900071082000D3007008D2005208CE07530813
:100DA000CF3D0030D03DD13D3C08C2004208F000AC
:100DB00040088F312327853171082000D300700847
:100DC000D2005208C2005308C300C401C501083054
:100DD000C235C30DC40DC50D890BE82E4208CE07E0
:100DE0004308CF3D4408D03D4508D13D4808C200E6
:100DF0004908C3004A08C4004B08C5001830C5366E
:100E0000C40CC30CC20C890BFF2E4208CE0743084A
:100E1000CF3D4408D03D4508D13D0830C835C90D07
:100E2000CA0DCB0D890B0E2F4D084C07C200C30114
:100E3000C30D4208823ED200FF30433DD300392F1C
:100E40000130CE35CF0DD00DD10D890B212FCB1F09
:100E50002A2F2B2F2D2F4E142D2F0130C835C90DC1
:100E6000CA0DCB0D890B2E2FFF30D207FF30D33D9B
:100E7000392FD01F3C2F3D2F202F3E2FCC01CB1FD1
:100E8000422F432F632FFF304805C200FF30490532
:100E9000C300FF304A05C4007F304B05C50045083C
:100EA0004404430442040319562F572F5A2FCC01F0
:100EB000CC0A632F4E1C5D2F5E2F632FCC01CC0A12
:100EC000632F632F632F4C080319672F682F922F0E
:100ED0000130CE070030CF3D0030D03D0030D13D55
:100EE000511C732F742F922F4E08C2004F08C3005D
:100EF0005008C4005108C5000130C600C537C40CF5
:100F0000C30CC20CC60B7E2F4508D1004408D0008C
:100F10004308CF004208CE000130D2070030D33D55
:100F2000922F922F5308803AC20080304202031D54
:100F30009B2FFF305202031C9E2F9F2FA92F7F3023
:100F40002000D1008030D0000030CF000030CE0033
:100F5000DA2F20005308803AC20080304202031D7D
:100F6000B32F013052020318B62FB72FC22F003013
:100F70002000D1000030D0000030CF000030CE0083
:100F8000C701DA2F20005208C2004208CD00FF300E
:100F9000CE05FF30CF057F30D0050030D1054D1C88
:100FA000D22FD32FD52FD017D52F4D36C2004208C0
:100FB000D100DA2F4708C2004208D1045108BD0011
:100FC0005008BC004F08BB004E08BA00E72F0800CD
:100FD000563084008E308500A030860000308700B7
:100FE0000F308E3116268731E001E101E201E30185
:100FF000E401E501E601E701E80120008231DE2A93
:101C24001630210097000800FE0012001E00FE0B73
:101C3400172E00347030210099009801220096017B
:101C44000800013021009D0090309E009B019C0102
:101C54000800FF3020009B009A01911005309C0081
:101C6400080000308E3192268E3101308E3192265A
:101C74008E310800F0003E2E2000111E422E432E0D
:101C84003E2E442E700823009A000800BC30250024
:101C940093009501803094000330960092017F30C8
:101CA4009100FC309E05080049346E346934743464
:101CB40061346C3469347A346534563461346C3448
:101CC4007534653400348F3101278E318E311C26F2
:101CD4008E318E3112268E318E3123268E318E3105
:101CE40048268E318E312B268E31803104208E3160
:101CF40008007108F3007008F200F336F20CF336B2
:101D0400F20C72082500910070080339F2000430C7
:101D1400F235890B8A2E1308CF3972049300080018
:101D2400F20022000C10962E72088F3149278E3152
:101D34009B2E22008C179E2E0B30F1006230890BF3
:101D4400A12EF10BA12E0032A72E22008C13AA2E55
:101D54000800B92E710884007208850000088E31CD
:101D64003C268E310130F1070030F23DB92E710866
:101D74008400720885001200031DC12EC22EAC2EF1
:101D8400C32E0800F3007308F200F20DF20D2100D7
:101D94001D087206833972069D001D140330890BD9
:101DA400D12E000021009D14D72E9D18DA2EDB2E93
:101DB400D72EDC2E1C08F1001B08F000E12E0800D1
:101DC400F801F901F42E7508780784007608793D46
:101DD4008500000880310F208E310130F807003073
:101DE400F93DF42E7508780784007608793D85005E
:101DF4001200031DFE2EFF2EE52E002F08002200E8
:101E040090018F018C018D0108308E000B30210070
:101E140090008C01FF308D00B0308E00DF308F00D9
:101E2400FF3023008F003F308D00073090003F309B
:101E34008C00240090018D012100951722009D0142
:101E44000800F800F401F5017008F200F3017208CB
:101E5400F6007308F7002E2F781C312F322F362FFF
:101E64007608F4077708F53D0130F635F70D890B50
:101E7400372F0310F80C7808031D412F422F2E2F03
:101E8400432F7508F1007408F000482F0800F00093
:101E9400701C4D2F4E2F522F22000C15562F562FEB
:101EA40022000C11562F562FF01C592F5A2F5D2F3C
:101EB4008C15602F602F8C11602F602F701D632F85
:101EC400642F672F0C166A2F6A2F0C126A2F6A2F41
:101ED400F01D6D2F6E2F712F8C16742F742F8C1292
:101EE400742F742F080000308F3149278F3134301C
:101EF400F300F230890B7C2FF30B7C2F03308E31EF
:101F040092268F310D30F300FC30890B872FF30BB1
:101F1400872F03308E3192268F311D30F30091309C
:101F2400890B922FF30B922F000003308E319226EF
:101F34008F3102308E3192268F3102308E319226CB
:101F44008F3108308E3192268F3100308E319226B7
:101F54008F310C308E3192268F3100308E319226A3
:101F64008F3106308E3192268F310800F6007603C9
:101F7400031DBD2FBE2FDB2F73087F3EF4007408B2
:101F8400F9007908F4000430F436890BC62F74087C
:101F9400F5007508F70079080F39F4007408F800A3
:101FA40077088E3192268F3178088E3192268F31C0
:101FB400FF2F02307606031DE02FE12FFF2F730859
:101FC400BF3EF4007408F9007908F4000430F436D4
:101FD400890BE92F7408F5007508F70079080F39A3
:101FE400F4007408F80077088E3192268F3178084F
:101FF4008E3192268F31FF2FFF2F0800573465341E
:102004006C347434663472346934653464346534DD
:102014006E340D340A3444346F346E3465343A34D7
:102024000034573465346C3466347234693465343E
:10203400643465346E343A3400341B345B343234E3
:102044003B343634483400341B345B3448341B345A
:102054005B344A3400342E342E342E340034253488
:02206400003446
:020000040001F9
:04000E00E4F9FFDE34
:00000001FF
