:020000040000FA
:08000000803102288731DA2F5C
:100B4400163021009700080078082000C7007708B5
:100B5400C600080078082000C5007708C400080013
:100B640078082000BF007708BE000800780820003D
:100B7400C1007708C0000800640080010131890BBE
:100B8400BF2D0034FE0012001E00FE0BC52D0034E4
:100B94006A30210099009801220096010800283447
:100BA4006E3475346C346C342934003408302300CA
:100BB4009F0090309D0024309E0033309B009C01A8
:100BC4000800F700E52D2000111EE92DEA2DE52D82
:100BD400EB2D770823009A000800F02D2000911EC9
:100BE400F42DF52DF02D23009D1CF92DFA2DFD2D4E
:100BF4001D121D16FD2D1908FF2D080086315A26D9
:100C040086318531CA2586318531A22586318631E2
:100C1400292686318631132686318531D8258631B9
:100C2400080021001508C039173895008B302000C2
:100C340095008B30F9007908C8000B118B16003031
:100C4400F7000030F8008531B22586310800200015
:100C5400990185309700EE3096001708C3001608F6
:100C6400C2001110210011140030F7000030F80008
:100C74008531B825863131302000980008004F2E88
:100C8400780884007908850000088531E3258631D9
:100C94000130F8070030F93D4F2E780884007908B8
:100CA40085001200031D572E582E422E592E08007F
:100CB400220090018F018C018D018E010D302100E5
:100CC4009000F9308C00FF308D00B7308E00FF307B
:100CD4008F00FF3023008F003C308D0005309000E2
:100CE4008C01240090018D012100951722009D01A3
:100CF4002700161096101510951014149414003033
:100D0400F7000030F8008531A62586310030F70061
:100D14000030F8008531AC2586318B15080086310A
:100D2400002686318B170B174E30F8008B30F900F4
:100D34008631412686312C30F8008B30F90086311B
:100D440041268631A730F8008930F90086314126E2
:100D540086310030F8008830F9008631412686312A
:100D6400B930F8008830F9008631412686317E306A
:100D7400F8008930F9008631412686317A30F8004E
:100D84008830F9008631412686316E30F8008A3089
:100D9400F9008631412686318730F8008A30F9001F
:100DA4008631412686312030F8008930F9008631B9
:100DB400412686314F30F8008930F90086314126CA
:100DC4008631B930F8008830F90086314126863101
:100DD400EB2E8531EF258631FB007B08FD00C02F0B
:100DE4007208031DF62EF72EEB2E20008C18FB2E16
:100DF400FC2E102F22008E15FF2E8C14012F313063
:100E0400F8008B30F9008631412686313A30F800FB
:100E14008A30F900863141268631EB2E22008E116C
:100E2400132F8C10152F3130F8008B30F9008631D8
:100E340041268631CE30F8008930F90086314126CA
:100E44008631EB2EEB2EEB2E7108031D2A2F2B2F50
:100E5400EB2E20000C192F2F302F442F220090143A
:100E6400332F0C15352F3130F8008B30F9008631D3
:100E7400412686315430F8008A30F9008631412603
:100E84008631EB2E22009010472F0C11492F313060
:100E9400F8008B30F900863141268631EA30F800BB
:100EA4008930F900863141268631EB2EEB2EEB2E6C
:100EB400720803195E2F602F0130612F0030FB0090
:100EC4007B08F200D030F8008A30F90086314126E0
:100ED4008631760C2000031C8C1003188C14760CBD
:100EE400031C8E1103188E15720803197A2F7B2F99
:100EF400832F1B30F8008B30F90086314126863170
:100F0400EB2E1430F8008B30F900863141268631FF
:100F1400EB2EEB2E71080319902F922F0130932F93
:100F24000030FB007B08F100E430F8008A30F9005F
:100F3400863141268631750C2000031C0C110318E0
:100F44000C15750C031C90100318901471080319E8
:100F5400AC2FAD2FB52F1B30F8008B30F900863144
:100F640041268631EB2E1430F8008B30F90086319F
:100F740041268631EB2EEB2EEB2EEB2E7D08FB006B
:100F8400FC017C08003A0319C82FEB2E7B08313A88
:100F94000319F22E033A0319262F433A03195A2F41
:100FA400063A03198C2FEB2EEB2EEB2E8031022800
:100FB400D1308400853085004930860000308700B8
:100FC40007308531C4258731F001F101F201F301C5
:100FD400F401F501F60120308400003085001E3054
:100FE4008531BE258731A030840000308500503023
:100FF4008531BE25873120008631912E44346534F5
:101004007234203461346E34673465347334633439
:1010140068346C346F347334733465346E346534CB
:101024002034543465346D3470346534723461342E
:10103400743475347234733465346E3473346F3489
:1010440072340A340D34773469347234643420349D
:1010540061346C346C346534203436342034533485
:1010640065346B3475346E34643465346E342034D2
:10107400613462346734653466347234613467349D
:101084007434203475346E3464340D340A34673463
:1010940069346234743420346434613473342034F5
:1010A4004D34653473347334653472346734653461
:1010B40062346E3469347334203461347534663484
:1010C400203464346534723420344B346F346E34D9
:1010D40073346F346C3465342034623465346B3467
:1010E40061346E346E3474342E340D340A34003466
:1010F4002834543469347034703465346E34203494
:10110400533469346534203461347534663420349E
:10111400643469346534203465346E34743473341F
:101124007034723465346334683465346E346434D2
:101134006534203454346134733474346534203465
:101144006134753466342034493468347234653417
:1011540072342034543461347334743461347434E8
:10116400753472342E3429340D340A340034233463
:1011740023342334233423342334233423342334B3
:1011840023342334233423342334233423342334A3
:101194002334233423342334233423342334233493
:1011A4002334233423342334233423342334233483
:1011B4002334233423342334233423342334233473
:1011C4002334233423342334233423342334233463
:1011D40023340D340A3400344434693465342034FF
:1011E40061346B347434753465346C346C34653404
:1011F4002034543465346D3470346534723461345D
:10120400743475347234203469347334743420344F
:1012140025342B342E34313466342034473472343C
:10122400613464342034433465346C347334693445
:10123400753473342E340A340D3400347134293443
:1012440020344B3431342034643475347234633490
:101254006834203449346E34703475347434303422
:10126400203473346334683461346C3474346234D9
:101274006134723420346D346134633468346534D9
:101284006E342034653469346E342F3461347534EB
:1012940073342E340D340A34003477342934203432
:1012A4004B343234203464347534723463346834E7
:1012B400203449346E347034753474343134203409
:1012C40073346334683461346C3474346234613438
:1012D400723420346D3461346334683465346E346C
:1012E4002034653469346E342F3461347534733486
:1012F4002E340D340A3400345334693465342034C4
:101304006734693462347434203466346F346C3432
:10131400673465346E34643465342034463475344B
:101324006E346B34743469346F346E3465346E34B3
:101334002034623465346434693465346E3465341D
:101344006E343A340D340A340034573469346C340E
:101354006C346B346F346D346D3465346E342034D6
:101364007A3475346D34203449342F344F342D3469
:1013740042346F34613472346434203449346E340A
:1013840074346534723466346134633465342E34B1
:101394000D340A340A340034523465346C34613404
:1013A4006934733420344B34313420346934733425
:1013B400743420346E3475346E34203469346E34AD
:1013C40061346B347434693476340D340A34003443
:1013D400523465346C3461346934733420344B349E
:1013E4003234203469347334743420346E347534B4
:1013F4006E34203469346E3461346B34743469343B
:1014040076340D340A340034443465347234203470
:1014140049346E34703475347434203431342034A7
:1014240069347334743420346E3475346E34203437
:10143400253473342E340D340A3400344434653482
:101444007234203449346E34703475347434203436
:101454003234203469347334743420346E34753443
:101464006E342034253473342E340D340A3400346D
:10147400523465346C3461346934733420344B34FD
:101484003134203469347334743420346E34753414
:101494006E34203461346B347434693476340D34EE
:1014A4000A340034523465346C346134693473342E
:1014B40020344B343234203469347334743420345B
:1014C4006E3475346E34203461346B34743469345E
:1014D40076340D340A34003431342934203452340F
:1014E40065346C3461346934733420344B343134AE
:1014F400203473346334683461346C347434653444
:101504006E342E340D340A34003432342934203409
:10151400523465346C3461346934733420344B345C
:101524003234203473346334683461346C34743446
:1015340065346E342E340D340A3400344434653446
:101544007234203449346E34703475347434203435
:101554003134203469347334743420346E34753443
:101564006E342034253473342E34003444346534DA
:101574007234203449346E34703475347434203405
:101584003234203469347334743420346E34753412
:101594006E342034253473342E3400344B343134D7
:1015A400203449346E347034753474347334743480
:1015B400653475346534723475346E3467343A3452
:1015C400203400344B343234203449346E34703493
:1015D40075347434733474346534753465347234E6
:1015E40075346E3467343A342034003420343A3459
:1015F40020344B34313420343D343E3420342534CB
:1016040073340D340A34003420343A3420344B34E7
:10161400323420343D343E342034253473340D3494
:101624000A34003441345534533421340D340A34EB
:10163400003441344E3421340D340A34003425341A
:1016440063345B3432344B340034483449344734E3
:10165400483400341B345B3432344A3400341B3491
:101664005B3432344B34003449344E344634003421
:101674004E3441344E34003469346E3466340034AC
:101684006E3461346E340034413455345334003490
:101694004C344F34573400341B345B3448340034F6
:0616A4006C3466340034D2
:020000040001F9
:04000E00E4DFFFDA52
:00000001FF
