:020000040000FA
:08000000803102288731E52F51
:100E140016302100970008007B082000B6007A08ED
:100E2400B50008007B082000B4007A08B30008006D
:100E34007B082000B2007A08B10008006400800139
:100E44000131890B212F00346A3021009900980167
:100E5400220096010800083023009F0090309D0076
:100E640024309E0033309B009C010800FA003A2F86
:100E74002000111E3E2F3F2F3A2F402F7A082300C7
:100E84009A0008008731AE278731873126278731BA
:100E940087310A27873187315427873187312D27B6
:100EA4008731080021001508C039173895008B30A8
:100EB400200095008B30FC007C08B7000B118B16CA
:100EC4000030FA000030FB0087311A278731080010
:100ED400782F7B0884007C08850000088731382738
:100EE40087310130FB070030FC3D782F7B088400FC
:100EF4007C0885001200031D802F812F6B2F822F09
:100F040008008731442787318B170B171F30FB00EC
:100F14008930FC0087316A2787310A30FB00893029
:100F2400FC0087316A278731E130FB008830FC0000
:100F340087316A2787310030FB008830FC00873115
:100F44006A2787317A30FB008830FC0087316A27B2
:100F54008731AB2F80310228220090018F018C0150
:100F64008D018E010D3021009000F9308C00FF308E
:100F74008D00B7308E00FF308F00FF3023008F00CC
:100F84003C308D00053090008C01240090018D01CF
:100F94002100951722009D012700161096101510A8
:100FA4009510141494140030FA000030FB008731BB
:100FB4000E2787310030FA000030FB0087311427F8
:100FC40087318B15080070308400003085000A30AA
:100FD400873120278731203084000030850011308C
:100FE400873120278731A0308400003085005030BD
:100FF40087312027873120008731832F443465349B
:101004007234203461346E34673465347334633439
:1010140068346C346F347334733465346E346534CB
:101024002034543465346D3470346534723461342E
:10103400743475347234733465346E3473346F3489
:1010440072340A340D34773469347234643420349D
:1010540061346C346C346534203436342034533485
:1010640065346B3475346E34643465346E342034D2
:10107400613462346734653466347234613467349D
:101084007434203475346E3464340D340A34673463
:1010940069346234743420346434613473342034F5
:1010A4004D34653473347334653472346734653461
:1010B40062346E3469347334203461347534663484
:1010C400203464346534723420344B346F346E34D9
:1010D40073346F346C3465342034623465346B3467
:1010E40061346E346E3474342E340D340A34003466
:1010F4002334233423342334233423342334233434
:101104002334233423342334233423342334233423
:101114002334233423342334233423342334233413
:101124002334233423342334233423342334233403
:1011340023342334233423342334233423342334F3
:1011440023342334233423342334233423342334E3
:10115400233423340D340A3400344434693465347C
:10116400203461346B347434753465346C346C34C9
:1011740065342034543465346D34703465347234D9
:10118400613474347534723420346934733474348F
:10119400203425342B342E3431346634203447340F
:1011A4007234613464342034433465346C347334BD
:1011B4006934753473342E340A340D34003457349E
:1011C40069346C346C346B346F346D346D34653421
:1011D4006E3420347A3475346D34203442346F34B0
:1011E400613472346434203449346E347434653474
:1011F400723466346134633465342E340D340A3405
:101204000A340034253463345B3432344B340034D0
:101214001B345B3432344A34003449344E3446345B
:1012240000344E3441344E34003469346E34663400
:1012340000346E3461346E3400341B345B3448340F
:0812440000346C346634003400
:020000040001F9
:04000E00E4DFFFDA52
:00000001FF
